:020000040800F2
:10000000886A012099010008C5550108D91D010819
:10001000995101082D28000891EF02080000000006
:10002000000000000000000000000000716A0208EB
:100030004D85000800000000F17301089187020857
:10004000B3010008B3010008B3010008B3010008C0
:10005000B3010008B3010008F1BB0008B3010008B8
:10006000B3010008E9BC0008B3010008B3010008AF
:10007000B3010008B3010008B3010008B301000890
:10008000B3010008B3010008B3010008B301000880
:10009000B3010008B3010008B301000815BD000852
:1000A000B3010008B3010008B3010008B301000860
:1000B00055880208A9890208B3010008B3010008A5
:1000C000B3010008B3010008B3010008B301000840
:1000D000B301000891A80208B301000845A902086D
:1000E00071BC00080B370208B3010008B301000817
:1000F000B3010008B3010008B3010008B301000810
:10010000B30100089D580208B3010008B3010008BC
:10011000B3010008B3010008B3010008818A020896
:10012000B3010008B3010008B3010008F78100081B
:10013000B30100085DBB0008B3010008B30100086B
:10014000B3010008B3010008B30100083D5B0108DA
:10015000B3010008B3010008B3010008F5A90208C3
:10016000B3010008B3010008B3010008B30100089F
:10017000B3010008B3010008B3010008B30100088F
:10018000B3010008DFF80CD000F00EFB0048004778
:100190009D420308886A01200648804706480047B8
:1001A000FEE7FEE7FEE7FEE7FEE7FEE7FEE7FEE727
:1001B000FEE7FEE7DD870208850100082DE9F05F14
:1001C0000546002092469B468846064681464024C6
:1001D0001BE0284641464746224600F0E4F85346D5
:1001E0005A46C01A914110D311461846224600F0D3
:1001F000CBF82D1A67EB01084F462246012000215B
:1002000000F0C2F817EB00094E41201EA4F10104D2
:10021000DFDC484631462A464346BDE8F09F40EAC7
:1002200001039B0703D009E008C9121F08C0042A74
:10023000FAD203E011F8013B00F8013B521EF9D25B
:100240007047D2B201E000F8012B491EFBD2704783
:100250000022F6E710B513460A4604461946FFF792
:10026000F0FF204610BD421E12F8013F002BFBD1CB
:1002700011F8013B02F8013B002BF9D1704730B572
:1002800005462A460B4612F8010B13F8014B08B13C
:10029000A042F8D01CB1002802D06D1CF1E728461E
:1002A00030BD10B5044604E00B7800F8013B03B103
:1002B000491C521EF8D2204610BDCAB2401E10F88A
:1002C000011F8A4202D00029F9D100207047421C48
:1002D00010F8011B0029FBD1801A704710B50022CD
:1002E00000E0521C835C8C5CA34201D1002BF8D14E
:1002F000D8B2E1B2401A10BD30B504460020034622
:1003000000E05B1C934203D2E05CCD5C401BF8D064
:1003100030BD034611F8012B00F8012B002AF9D15A
:100320001846704730B505460020034600E05B1CC8
:10033000934205D2EC5CC85C201A01D1002CF6D1A6
:1003400030BD70B506462FF0DFFB046805460A2273
:100350000021304600F037F82C6070BD30B50B46F8
:10036000014600202022012409E021FA02F59D42E5
:1003700005D303FA02F5491B04FA02F52844151EB9
:10038000A2F10102F1DC30BD202A04DB203A00FAA0
:1003900002F1002070479140C2F1200320FA03F3DC
:1003A000194390407047202A04DB203A21FA02F0DA
:1003B0000021704721FA02F3D040C2F1200291409F
:1003C0000843194670472DE9F04791460F4680468D
:1003D0000446002614F8015B2DB100F009FA00680C
:1003E000405DC007F6D12B2D02D02D2D18D0641EF4
:1003F0004A463946204600F0FFF927B13968A14244
:1004000001D1C7F8008071054FF002040BD54042BE
:10041000002803DD2FF078FB0460A007BDE8F0871B
:1004200046F48066E4E70028F8DA2FF06DFB0460FC
:100430006FF00040F2E72DE9FE4F804681EA0300AD
:10044000C00F0C46009021F0004123F00045B8EBAE
:100450000200A94105D24046214690461C460B4663
:10046000024623F00040104347D0270DC7F30A008F
:10047000C3F30A510290401A019040286BDAC3F38B
:10048000130040F4801B0098924620B10023D2EB69
:10049000030A63EB0B0B01985946C0F1400250462A
:1004A000FFF772FF06460D4650465946019A00F086
:1004B0008DF910EB08006141002487EA115284EAAB
:1004C000E7731A4340D0009A62B3019A012A4FEAB7
:1004D000075215DC001B61EB02014FF0004202EAFB
:1004E0000752CDE90042001C41F5801132462B46EF
:1004F00000F0E0F903B0BDE8F08F40462146F9E78F
:10050000001B61EB0201001C41F5801300185B41E8
:100510002018A2F5001747EB030140EAD570B61981
:100520006D4111E06D084FEA360645EAC0754FEAA5
:100530000752001B61EB0201001C41F580114908C4
:100540004FEA30000019514132462B4603B0BDE856
:10055000F04F00F0A0B90098012240000023D0EB3A
:10056000020263EBE073009821464FEAE074B8EBB7
:10057000000061EB0401E9E783F000435BE781F0F1
:10058000004158E72DE9FE4F81EA030404F00044DE
:1005900021F0004100944FF0000B23F0004350EA9B
:1005A00001045ED052EA03045BD0C3F30A54C1F3E2
:1005B0000A552C44A4F2F3340194A0FB0254C1F375
:1005C000130141F48011C3F3130343F4801301FBBF
:1005D000024400FB034E840A970A44EA815447EA26
:1005E0008357A4FB076802958D0A05FB07854FEA30
:1005F000932C04FB0C542705029D4FEA065847EA4A
:100600001637B5EB08056EEB070C870E920E47EA1E
:10061000811742EA8312A7FB0201B6EB0B0164EBE0
:1006200000042B0D43EA0C335E1844EB1C50DA46F1
:100630005146E7FB0201C5F313044FEA0B3343EACB
:1006400014534FEA0432019C43EA0603A4F10C045C
:100650000294009CCDE900B400F02CF903B0BDE891
:10066000F08F00200146F9E72DE9F04D81EA0304FF
:1006700004F0004B21F0004514464FF0000A23F02F
:10068000004150EA050220D054EA01021DD0C5F312
:100690000A570246C5F31303C1F31300C1F30A5608
:1006A00040F4801543F48013A7EB0608101BD646D0
:1006B00008F2FD3873EB050002D308F1010801E0F0
:1006C00092185B41B8F1000F03DA00200146BDE843
:1006D000F08D00204FF48011064684460EE0171B73
:1006E00073EB050705D3121B63EB050306434CEAC6
:1006F000010C49084FEA300092185B4150EA0107AB
:10070000EDD152EA030012D082EA040083EA050127
:10071000084305D0101BAB4106D20122002306E09E
:1007200000224FF0004302E06FF0010253101AEB79
:1007300006004CEB085110EB0A0041EB0B01BDE841
:10074000F04D00F0A8B8C1F30A52C1F3130140F212
:10075000FF3341F480119A4202DA002001467047CB
:1007600040F233439A42A2F2334202DC5242FFF794
:100770001ABEFFF709BE000030B5041E71F1000477
:1007800004DB4FF00044404264EB0101141E73F19E
:10079000000405DB1C464FF00043524263EB0403A8
:1007A000994208BF904230BD064C074D06E0E06814
:1007B00040F0010394E8070098471034AC42F6D3A8
:1007C000FFF7E4FC08C1070828C10708202A06DB58
:1007D000CB17203A41FA02F043EAE07306E041FA0F
:1007E00002F3D040C2F120029140084319467047FD
:1007F000004870479C9F07082DE9F05F824600780B
:10080000002715468B460AF10104B946302801D06D
:100810009DB113E014F8010B0127782803D0582864
:1008200001D045B10AE00DB1102D07D100271025E8
:1008300014F8010B02E0082500E00A250026B04666
:100840000EE005FB080005FB06F1012701EB104651
:100850001FFA80F8B6F5803F00D3B94614F8010BB3
:10086000294600F075F80028EBDABBF1000F05D03F
:100870000FB1641E00E05446CBF80040B9F1000F00
:1008800006D02FF041F902210160C81EBDE8F09F9B
:1008900048EA0640FAE710B5141E73F1000408DABE
:1008A000401C41F1000192185B411A4301D120F034
:1008B000010010BD2DE9F04D92469B4611B1B1FAF1
:1008C00081F202E0B0FA80F220329046FFF75CFD40
:1008D00004460F4640EA0A0041EA0B0153465A46D5
:1008E000084313D0114653EA010019D0C8F1400261
:1008F0005046FFF758FD05460E46504659464246BB
:10090000FFF742FD084305D0012004E020463946A8
:10091000BDE8F08D0020054346EAE0762C433743DE
:100920000A986305E40AA0EB08000022FD0A44EAE5
:1009300047540A3002D500200146E9E701051019A5
:100940006941DDE9084500196941BDE8F04DA2E7BC
:100950003A2800D2303820F02002412A01D3A2F1F7
:100960003700884201D34FF0FF30704770B58C18C4
:1009700010F8015B15F0070301D110F8013B2A11B3
:1009800006D110F8012B03E010F8016B01F8016BA0
:100990005B1EF9D12B0705D40023521E0DD401F89C
:1009A000013BFAE710F8013BCB1A921C03E013F865
:1009B000015B01F8015B521EF9D5A142D8D300209A
:1009C00070BD0000F0B599B001212D4822F09CFBCC
:1009D00001210D02284622F0C7FB2A4F384607F0B6
:1009E0002DFC29480024CDE90040284802A9022610
:1009F00081E85100A800CDE9054040000790800043
:100A0000CDE9080500010A9001250420CDE90C5428
:100A10000B90694638460E9407F0C2FC0121384617
:100A200007F002FC4FF44030CDE915404FF4206050
:100A3000CDE9174015A800F035F80F9411941294E1
:100A40001394114C8DF840504C3C8DF841508DF86A
:100A500050600FA9204600F04FF801231A460C21E0
:100A6000204600F06FF8012302221221204600F0F8
:100A700069F80121204600F035F819B0F0BD0000FA
:100A800004004000106402404C2001408E00002011
:100A90000029816802D041F0010101E021F001014B
:100AA00081607047084B10B5D3F8042307490A400A
:100AB000D0E900142143D0E902400443214311430B
:100AC000C3F8041310BD000000200140E030FCFF1B
:100AD0000029816802D041F4807101E021F4807125
:100AE000816070470029816802D041F4007101E003
:100AF00021F400718160704730B542680F4B0C796A
:100B00001A400B6842EA04221343436082680C4B8C
:100B10004D791A40D1E9034323438C6844EA4504E4
:100B2000234313438360C26A097D22F47002491E85
:100B3000C9B242EA0151C16230BD0000FFFEFFFCB4
:100B4000FDF7FFC070B5072609290AD9C568A1F1CC
:100B50000A0404EB4404A640B543A3401D43C5600A
:100B600007E0056901EB4104A640B543A3401D43DE
:100B700005611F23072A09D2446B521E02EB820231
:100B800093409C4391400C43446370BD0D2A09D2AD
:100B9000046BD21F02EB820293409C4391400C43B2
:100BA000046370BDC46A0D3A02EB820293409C4319
:100BB00091400C43C46270BD816841F08041816006
:100BC0007047000006490028D1F8040302D040F421
:100BD000800001E020F48000C1F8040370470000A9
:100BE00000200140A0F1300200F00F01092A01D8D5
:100BF00008467047A0F14102052A02D9613805284C
:100C000002D801F109007047002070472DE9F04734
:100C1000044600783D4D00F080000E46687108786B
:100C200000F08000A871207800F00700E87180468D
:100C30000878112100F007072F723548FFF708FBED
:100C4000334811211130FFF703FBDFF8C490D4F8CB
:100C50000110B845C9F80010D4F80510C9F80410FF
:100C6000D6F80110C9F81110D6F80510C9F81510FA
:100C700008D80CE000F101002872254800F11100AD
:100C800000F06BFEE979287A8142F3D80AE005D3B7
:100C900008E0401CE8711E4800F05FFEE879297A00
:100CA0008842F6D31A4A07204E461132315C135C53
:100CB000994214D80FD24FF00001705C535C73540A
:100CC000505401F1010109B20829F6DBA8796979CC
:100CD000A971687103E0401E00B20028E6DA687965
:100CE000A979884202D100F015F801E027F0DCFA7A
:100CF0006879287106F0B0FB287920703068C4F854
:100D000001007068C4F80500BDE8F0878804002081
:100D10008CC20020F0B50022164D1046A5F111043A
:100D20000A23215C01F00F06090901EB810106EBA2
:100D30004106295C01F00F07090901EB810107EB6E
:100D4000410131441144C9B2632903D96439C9B29C
:100D5000012200E00022B1FBF3F603FB1616B1FB03
:100D6000F3F106EB01112154401C00B21028D8DB2E
:100D7000F0BD00009DC2002070B50EF07DFD124E4A
:100D8000124806F5805496F8C216026806F5945586
:100D900011440160002084F82000C0B206EBC000BE
:100DA000D0F8C416C5F87710D0F8C806C5F87B008F
:100DB00000F01AFA94F82000401CC0B284F8200019
:100DC0000628EAD370BD0000E0C20020F404002031
:100DD00070B50EF061FD124E124806F5805496F87B
:100DE000F716026806F5945511440160002084F856
:100DF0002000C0B206EBC000D0F8F916C5F8771095
:100E0000D0F8FD06C5F87B0000F0EEF994F820005C
:100E1000401CC0B284F820000628EAD370BD000050
:100E2000E0C20020F404002070B5164CA4F58056F2
:100E3000B4F84600B6F82917884221D20EF0CEFD4C
:100E4000114896F82D1706F5945502681144016073
:100E5000002084F82000C0B206EBC000D0F83217A2
:100E6000C5F87710D0F83607C5F87B0000F0BCF95C
:100E700094F82000401CC0B284F820000628EAD371
:100E800070BD0000E0D20020F404002070B50EF028
:100E9000FBFD124E124806F5805496F8651702685D
:100EA00006F5945511440160002084F82000C0B27A
:100EB00006EBC000D0F86717C5F87710D0F86B07BD
:100EC000C5F87B0000F090F994F82000401CC0B2F7
:100ED00084F820000628EAD370BD0000E0C200209C
:100EE000F404002070B5164E96F8F90F96F897178F
:100EF000884223D20EF0D8FD124896F89A1706F5CC
:100F00008054026806F5945511440160002084F86D
:100F10002000C0B206EBC000D0F89C17C5F87710CF
:100F2000D0F8A007C5F87B0000F05EF994F8200027
:100F3000401CC0B284F820000628EAD370BD00002F
:100F4000E0C20020F40400202DE9F041244E254F9A
:100F50004FF00008D6F8A104386006F580544046EA
:100F600084F8208006F59455C0B206EBC000D0F896
:100F70008F16C5F87710D0F89306C5F87B0000F0FF
:100F800033F994F82000401CC0B284F820000628F1
:100F9000EAD3B4F84800B6F8CC1788421ED20EF057
:100FA000BFFD96F8D007396808443860404684F899
:100FB0002080C0B206EBC000D0F8D217C5F8771079
:100FC000D0F8D607C5F87B0000F00EF994F82000A1
:100FD000401CC0B284F820000628EAD3BDE8F081A6
:100FE000E0C20020F40400202DE9FC41224E2348F9
:100FF000B6F8C44F10F0F6FB2048C278817800881C
:101000000AF056FF1E4DB4F5006F688130DA4FF4D8
:10101000004000EB041005F10A0210212FF0B2FC91
:101020002C800020688000904FF48047019007EBEF
:10103000C4006A4608212FF0A5FCB6F8C40F401C76
:10104000A6F8C40F2988C4F30900B1F5806F298977
:1010500003D2B94204D0BDE8FC81B1F5C04FFAD14A
:1010600005EBC000009940F81A1F01994160F2E7B2
:101070005A2086F8FA0FEEE7E0C20020D4FD0020E7
:101080003F0A012070B50FF02DFB124E124806F5F5
:10109000805496F80818026806F5945511440160CA
:1010A000002084F82000C0B206EBC000D0F81A1867
:1010B000C5F87710D0F81E08C5F87B0000F094F84A
:1010C00094F82000401CC0B284F820000628EAD31F
:1010D00070BD0000E0C20020F404002070B54FF0A5
:1010E000FF300FF09DFB124E124806F5805496F823
:1010F0001918026806F5945511440160002084F81F
:101100002000C0B206EBC000D0F84A18C5F877102E
:10111000D0F84E08C5F87B0000F066F894F820007F
:10112000401CC0B284F820000628EAD370BD00003D
:10113000E0C20020F404002070B50FF09BFB124EBB
:10114000124806F5805496F88018026806F5945502
:1011500011440160002084F82000C0B206EBC000FA
:10116000D0F88718C5F87710D0F88B08C5F87B0041
:1011700000F03AF894F82000401CC0B284F8200037
:101180000628EAD370BD0000E0C20020F40400206D
:1011900070B50FF0E3FB124E124806F5805496F836
:1011A000BA18026806F5945511440160002084F8CD
:1011B0002000C0B206EBC000D0F8BC18C5F877100C
:1011C000D0F8C008C5F87B0000F00EF894F82000B5
:1011D000401CC0B284F820000628EAD370BD00008D
:1011E000E0C20020F40400202DE9F041364DE87AF9
:1011F000002856D195F8F702002852D095F8F81239
:1012000000294ED0EA7C002A4BD10024C20700D02E
:101210000C46820700D50C44420700D50C44020757
:1012200000D50C4495F8202028492646062A1BD2D2
:10123000DFE802F00306113940370024264613E0A8
:10124000B1F82D25002A2CD0B5F84210521A62436D
:1012500096B2491E06E091F85629002A21D095F849
:101260002D102CE061438CB2194FC007396821441E
:10127000396001D000F0F6F895F8F702800701D543
:1012800000F0F0F895F8F702400701D500F0EAF811
:1012900095F8F702000701D500F0E4F8386830440B
:1012A0003860BDE8F08191F88729002AF9D091F8DB
:1012B000F61F04E091F88829002AF2D0297E521AFC
:1012C000521E624396B2CDE7E0D20020E0C2002079
:1012D000F40400203EB51848417800292BD1A0F530
:1012E000805292F8FE1F022925D0C17A002922D10E
:1012F000407C08B1032100E00021104803680093FE
:1013000043680193007A8DF80800501800F578645E
:10131000B0F8D41FADF8011090F8D60F8DF8030087
:1013200007496846FFF772FCBDF8010024F8540F26
:101330009DF80300A0703EBDE0D20020489207084F
:10134000519207082DE9F047184E0125A6F580585F
:1013500096F8291096F82A7041404F4041F6517195
:10136000002441F6F37908EB010A2F4207D004EB81
:10137000C401414401EB09005146FFF747FC6806F0
:10138000641C050EE4B2082CEFD351460848FFF761
:101390003DFC07492D3901F13600FFF737FC16F8FF
:1013A0002A0F707000203070BDE8F087E0D2002076
:1013B000B8E2002070B510F0F1F9124E124806F5AF
:1013C000805496F8EF18026806F5945511440160B0
:1013D000002084F82000C0B206EBC000D0F8F1185D
:1013E000C5F87710D0F8F508C5F87B00FFF7FCFECC
:1013F00094F82000401CC0B284F820000628EAD3EC
:1014000070BD0000E0C20020F404002070B510F0B0
:10141000D7F9124E124806F5805496F8241902683E
:1014200006F5945511440160002084F82000C0B2F4
:1014300006EBC000D0F82619C5F87710D0F82A09B5
:10144000C5F87B00FFF7D0FE94F82000401CC0B226
:1014500084F820000628EAD370BD0000E0C2002016
:10146000F404002070B5364C364E607C356840B1CF
:1014700094F82000012804D094F8F8022844306041
:1014800070BD23F02FF93048356090F8ED1F11B191
:101490002EF0AAFAF0E794F8F91269B194F82B1338
:1014A000090709D494F82F1031B990F8FE0F18B934
:1014B00026492748FFF7AAFB94F8FA0250B194F89E
:1014C0002B03244900F0830084F82B03A1F5486026
:1014D000FFF79CFB94F8FB0228B11E495A39A1F68C
:1014E0001D40FFF793FB94F8FC0290B11949243199
:1014F000A1F6924026F00CFF94F83D03000608D5B3
:10150000134815491B300A6802604A684260097A2C
:10151000017294F8FD0228B10E493F39A1F6264028
:10152000FFF774FB94F8FE0228B10A494839A1F686
:101530001440FFF76BFBBDE870402EF055BA000079
:10154000E0D20020F4040020E0C2002051920708FD
:1015500002D600208BE20020489207082DE9F84FC0
:101560005449401E4FF0000B08805349534FDFF899
:10157000508181F800B087F8FABF87F8EABF0221EE
:10158000504888F800104FF001094F4980F800904A
:101590001F20087007F58054DFF830A14721A4F818
:1015A00040108AF80C00002005F0E2FA32F0EAFA66
:1015B000012032F0A3FD20F0EBFB04F500560020E3
:1015C00005F0A4F9ADF800000546002002F01AFE6F
:1015D000002DF4D0E8B20EF093FA0E2830D00C288B
:1015E00001D070B114E094F83800C00610D596F818
:1015F000D80A800601D5032000E0022005F086F914
:10160000DDE7009812F0C6FB012005F0B1FAD6E73D
:10161000B9EB152F45D196F8D80A800641D4E8B227
:101620004028CCD2A07507EB4000B0F82104A4F804
:10163000490F02F06BFEA0B398F800000028BED15D
:10164000A06B20F48870A063032005F05FF932F0EE
:1016500099FA4320A4F84000E06E0422002108F02B
:1016600059FC15485D4680F800B087F8FABF154868
:101670008AF80CB088F800B080F800B0124880F802
:1016800000B0002005F074FA42F21070A4F8490F7F
:101690000F49A5724E200870BDE8F84F002032F0C7
:1016A0002DBD009812F076FB0A480B49807908702E
:1016B00085E700003A05002042050020E0C2002036
:1016C0003F0500204005002041050020C4FD00200A
:1016D000440500202CBE0020430500200020704758
:1016E00070B50C462249020091F820040BD0000985
:1016F00000283BD025780022227091F8201411F0A8
:101700000F0002D002E00007F2E70809012806D026
:10171000022811D0032818D0042826D11CE06078B4
:1017200000F00F00052803D312492046FFF76EFA98
:10173000607800F0F00006E060786270742810D8DD
:10174000242812D9502060700FE06078627000F099
:10175000F000502805D208E06078627010F0F00FB9
:1017600003D005492046FFF751FA257070BD0000EF
:10177000E0C200205A920708639207082DE9F04161
:10178000274D0446287830B920224F212548FEF7FE
:1017900058FD05F066FB2448224E4FF0000890F8F3
:1017A0003800C0062BD4214F2F2C02D02E2C10D065
:1017B00003E03020FFF7E2FF302497F8F70FF0B195
:1017C000302C1CD3392C1AD8032815D90020BDE899
:1017D000F08197F8F70F0028F8D1012087F8F70F6C
:1017E000287870B9302006F84D0F2E20707086F8DA
:1017F000028002202870EAE7401C87F8F70F28785B
:1018000020B14E22711C0748FEF709FD86F84E40B4
:1018100086F84F802878401CC0B22870D7E70000B7
:1018200043050020DDFD0020E0D20020E0C20020C2
:10183000020AC1B2100902F00F0300EB800003EBB3
:10184000400000EBC00202EB00104FF6FF7202EA0C
:101850008002080901F00F0300EB800003EB400059
:10186000104480B2704700002DE9FF41104F1D4623
:101870001646DDE90B3297F8E4730A9C012F06D077
:10188000CDE90232022F334609D02A4603E0CDE9E2
:1018900002322B463246CDE9001406A103E0CDE921
:1018A00000540A460BA12EF009F9BDE8FF810000A3
:1018B000E0C20020253032782D253032782D3230AC
:1018C0002530327820253032783A253032783A2562
:1018D000303278003230253032782D253032782D74
:1018E0002530327820253032783A253032783A2542
:1018F0003032780030B500230622845C992C0CD855
:1019000004F00F05240904EB840405EB440403EB05
:10191000C30505EB031304EB8303521E12B2002A26
:10192000EBDA98B20B6030BD002310B519460F30CA
:1019300003E0401E491C10290EDA0278002AF8D074
:1019400008E002781407240E03EB121200F80129B4
:101950002346491C1029F4DB10BD10B5002319469D
:101960000278491C14011209234400F8013B134674
:101970001029F5DB10BD014607200A1852781AB964
:10198000401E00B20028F8DA401C00B2002809DD31
:101990000A5C0F2A04D24FF0FF3202EB400000E055
:1019A000400000B20978090601D5401C00B270471A
:1019B00010B50121080721F0CBFB012014F054FAE7
:1019C0000121880421F0A0FB012014F053FA082023
:1019D00014F056FA0028FAD010BD00002DE9FF5F80
:1019E00006462BF07BFAC0B306EB460000EB06116F
:1019F000E24800EB4107D7F80CB0B8680190D7F87F
:101A00001E000390D7F822000290D7F81A402CB19C
:101A1000D7F81600B4F80080B0F80090B7F814A01A
:101A20003869D74D0090202028703968681CFEF76F
:101A300070FC2846FEF74BFC2E212954D14900F1B9
:101A4000010091F8E613CA074FF043010ED0295464
:101A5000401C5321295456210DE0FFE7C9484C2171
:101A600080F8FA1FFF2004B0BDE8F09F52222A54EC
:101A70004522401C2A54401C2954401C0021295452
:101A8000C148807810B1012823D113E0681C2CF0E4
:101A9000EBFE08B1502151E03E202870012E05D107
:101AA000B84890F8811809B1B0F87C98B748D0F8D8
:101AB00030090AE00121681C2CF008FF002840D101
:101AC0003C202870B148D0F834090022114608F0B3
:101AD00021FAAE48012100EB8605D5F8400919F03E
:101AE0001DFB012204212D2007F038FAD5F840090A
:101AF0000122052108F00EFA05F0C2F9012505F0D2
:101B0000A1F9042211469E4808F004FA9D4890F875
:101B1000E603C00725D09C48807810B1012820D169
:101B200010E07868E8B1FEF7D2FB014678682CF047
:101B30002DFF401C15D12CF087FE4F21914880F8D5
:101B4000FA1FCFE0514600982CF0F4FE002808DC84
:101B500002D12CF079FE0FE18A494E2081F8FA0F6C
:101B6000C0E074B1022E3AD0042E38D0122E36D0F6
:101B70000B2E34D084488078002874D0012873D18B
:101B8000B9E08148807848B10128E2D17D4C94F8D1
:101B9000E603C00719D001988047DAE7794D95F838
:101BA000E603C00705D0D847401CD2D12CF04CFE2C
:101BB0003DE0514600982CF0E9FE5045C9D02CF08C
:101BC00043FE4F2085F8FA0F8CE0514600982CF028
:101BD000B1FE401CBDD14E2084F8FA0FB9E76A4827
:101BE00009F0FF06807810B101284ED129E00020CD
:101BF0002070644F21E0A8B2052304220A2108F0D6
:101C0000BBFC03986D1C804797F8E603C00703D020
:101C1000D847401CCAD00DE0514600982CF0B6FEC3
:101C2000504507D02CF010FE4F2087F8FA0F84F8AB
:101C3000008057E02078401C2070C0B2B042DAD358
:101C400023E0002020704F4F1CE0A8B2052304229F
:101C50000A2108F091FC97F8E6036D1CC00704D038
:101C60000198804707E019E065E0514600982CF0A4
:101C700061FE411C0ED0002807DD029880472078C5
:101C8000401C2070C0B2B042DFD32CF0DDFD84F8E0
:101C9000008071E04E2087F8FA0FF6E700202080E0
:101CA000384E24E0A8B2052304220A2108F064FC7F
:101CB00003986D1C804796F8E603C00705D0D84707
:101CC000401C11D12CF0C0FD0AE0514600982CF0C8
:101CD0005DFE504508D02CF0B7FD4F2086F8FA0F76
:101CE000A4F800800020BEE62088401C208081B23D
:101CF0004945D7D33CE0002036E0A8B205230422B2
:101D00000A2108F039FC1F4F6D1C97F8E603C00745
:101D100002D00198804705E0514600982CF00AFE59
:101D2000411C04D0002823DD012E05D018E0154900
:101D30004E2081F8FA0F1BE097F8811881B100203E
:101D400006E03A1802F5805292F8912212B9401C2E
:101D50008142F6DC81420BDD2088401CA7F87C081C
:101D6000029880472088401C81B220804945C4D316
:101D70002CF06AFDA4F80080012074E67465070861
:101D800047FE0020E0C20020FC030020BE800708C0
:101D900010B5124CB4F8D81A8A051DD458B1104A9F
:101DA00004F52860B0F85A00A2F80100501C02782F
:101DB00042F08002027001F00100C0F10400020153
:101DC00008490948FEF72BFA31F0DCFEB4F8D80ACE
:101DD00040F40070A4F8D80A10BD0000E0F2002022
:101DE0006C04002068FD00203CBE00200D4810B5AA
:101DF00090F8FD1311F0070402D090F8FA0F08B123
:101E0000002010BD641EE0B20AF038F8E0B20521EF
:101E100025F0CDF8044900208870487088800120A2
:101E200010BD0000E0C20020080400202DE9F05F92
:101E3000834890F8FD1311F0070436D0814690F8DE
:101E4000FA0F002831D17F4FDFF8FC8100264FF0D8
:101E50000A0B4FF0010A641EE0B202F0CDF900282F
:101E6000EBD0E0B221F004FF411C1ED0B8F9041001
:101E700021B198F80020022A29D031E088F80360C7
:101E800088F80260324688F8016001280ED00228E6
:101E90000DD0062802D0462807D10BE0E0B2112170
:101EA00025F085F8022088F80000B4E0022288F8C6
:101EB000002001E088F800A099F8FD2302F0070354
:101EC00098F8002043EA021289F8FD230EE0042866
:101ED00014D0012904DD98F80320424088F803203B
:101EE00098F8022012B18A1A012A00DC7854A0F175
:101EF0003002092A12D92E2810D016E098F80300D3
:101F000090F0030088F803003CD1B878532839D109
:101F10003888A0F50071013934D13AE098F80120F1
:101F20000AB988F8011088F80210491C09B2A8F80B
:101F3000041098F80020012A01D10A290BD01E298B
:101F400016DA0A2814D00D2886D198F8000090B12E
:101F5000012814D016E098F8011009B988F801B0EA
:101F600088F802B02E21B9720B21A8F80410E8E716
:101F7000A8F804604FE0387802280AD002E03878E8
:101F8000462806D0E0B209F079FF552089F8FA0F0B
:101F9000EEE7002004F0ECFDE0B209F06FFF2B4902
:101FA000B3460E70A8F8046098F8014098F8020053
:101FB000002684422FD2264D1CE046B9385BA0F59E
:101FC0004051303901D0012600E0002686B1A5F845
:101FD0004BBF385D91882E2820D029B189B2491C89
:101FE00009B29180042903DCA5F8490F11F084FCA3
:101FF000641C24B298F8020042468442DDDD5C464F
:10200000A8F804B0012000F073F9B5F840004328A7
:1020100009D0452807D00020BDE8F09F0029DDD178
:10202000A2F804A0E0E7A5F84B4F40F2D470A5F861
:10203000490F89F8FBAF1BF0C1FE0120ECE700005F
:10204000E0C2002010BD002008040020460500204A
:10205000E0D200202DE9F05F634890F8FF1390F87C
:10206000FA0F01F0070570B9604CB4F8400042283F
:1020700009D0462807D0DFF878B147280BD19BF864
:1020800000001F2807D02AF0F1FE02285AD10120B3
:102090000FF012FC56E04FF00009DFF858A1564E41
:1020A0004F462AF0E3FE022806D104F0BBFB18B12C
:1020B00000200FF001FC0DE0CDB3A5F1010808F000
:1020C000FF0002F099F890B308F0FF0021F0D0FD76
:1020D000411C37D03168C0B252460AF80100491C91
:1020E0003160FE2901DB37602CE00A2820D006DCB5
:1020F0000228F8D003282CD0092804D129E00D2883
:1021000027D02428EFD020385F2803D3491E316020
:102110000AF80170B9F1000FC3D0002004F028FDC7
:1021200036480770B4F84000472818D01AE009E094
:1021300010460A4412F8022C0D2A06D0491E3160BE
:102140004754EAD10020BDE8F09F891E3160475412
:10215000E3E7481E30600AF80070F4D0DDE79BF832
:102160000000F8B1264832782249027025483760CD
:10217000801A4F30FEF753F81B4D012085F8FC0FF5
:1021800002F0C0FDB4F84000432822D0452820D0FA
:10219000A4F8497F1C49A772442817D095F8C703B3
:1021A00008701EE094F82200400701D5062000E0E8
:1021B0000220104913F0F2FC04F062FE04F042FE2B
:1021C000042211460B4807F0A5FE8CE70F48007863
:1021D000E6E7A4F84B7F42F21070A4F8490F1BF019
:1021E000EDFD0120AFE70000E0C20020E0D20020BA
:1021F000410500202EBD00201004002046050020CF
:1022000043050020DDFD0020220500204B050020B5
:10221000034610B50020491E0DE0C20002EB40004D
:102220005A5C00EB1210C40004EB400002F00F02F5
:10223000491E104409B20029EFDA10BD70B50446FA
:1022400011210848FEF704F8064D54F8010F2860E4
:10225000606868602846FFF767FB28682060686848
:10226000606070BD8CC20020D0F80210C0F8011070
:10227000C188A0F80510017AC17100210172704770
:1022800070B5044611210848FDF7E2FF064D54F8E9
:10229000010F2860606868602846FFF75EFB2868C9
:1022A00020606868606070BD8CC200200721431800
:1022B000425C491E5A700029F9DC002141707047C8
:1022C000094A4FF4806111800A220849012803D08D
:1022D000022803D0032803D00A807047282000E09A
:1022E00050200880704700001A1802402400002087
:1022F00000B5C0B2FFF7E4FF002000BD2DE9FC5F90
:10230000174688468346082A00D9082773B31C4A13
:1023100000265B1E1DB29246D2F8009019E0A81963
:10232000C0F34E0404FB0891CAF800103946684611
:1023300022F014F93A466946584604F0CDFF0028C9
:1023400003DAA4F1010425B203E012D004F1010480
:1023500026B2AE42E3DDDAF80010C91BCAF800105D
:10236000002803DD01EB0800CAF800000020BDE8EA
:10237000FC9FDAF80010C91B601CCAF80010F6E7D1
:10238000F4040020F8B514460E463C2812D006DCB2
:1023900034280FD035280DD0362807D10AE0414D1A
:1023A000442809D0452805D0462868D001463EA0DB
:1023B00028F02AFC0020F8BD288F00056FD4C8B291
:1023C000421E02218DF80000E607DDB22ED0394C06
:1023D00094F861488CB123B1202B02D88DF80250BB
:1023E000032131208DF801001222684620F08AFF77
:1023F0000024314D42F661060AE0302419E03044F1
:1024000002221F2120F07EFF641CE4B2082C07D2B8
:1024100004EB4410284442F66101095C0029EED126
:10242000002002228DF80000012124E0A40702D53B
:1024300032248DF8014023B1202B02D88DF80250B0
:1024400017E0B8B1182815D89DF801301B48322B79
:1024500003D150F822305B8863B950F8220082889B
:1024600042B90088C0F1200000EBD07040088DF820
:10247000020003211222684620F044FF0FE03EB123
:102480000846FDF724FFC1B2202902D9202100E02F
:102490000021288F000502D4E2B23046ECE701208B
:1024A000F8BD0000E0D20020436F6D6D616E6420C6
:1024B00025640A00E0E20020E0C20020880200203B
:1024C0007CB51D287ED00CDCA0F10F010D291CD29B
:1024D000DFE801F01F1B1B1F1F1B1B1B31333D3986
:1024E00037000A247A4D502833D006DC332810D028
:1024F0003D2810D03F2808D113E0754E361D5128D5
:1025000063D052287DD053287CD0014671A028F09A
:102510007BFB00207CBD0FF06BFA7248008880B214
:102520007CBD7148008F0005F3D40022114610468F
:1025300020F0E8FEEDE7002000E0012009F0B2FC09
:10254000E7E7032000E00220FFF7BAFEE1E7012001
:10255000FAE76946002021F063F99DF80200B0FB1C
:10256000F4F104FB11009DF80210B1FBF4F100EB53
:10257000011028709DF80100B0FBF4F104FB11007C
:102580009DF80110B1FBF4F100EB011068709DF8AB
:102590000300B0FBF4F104FB11009DF80310B1FB44
:1025A000F4F100EB0110A8709DF80000B0FBF4F10D
:1025B00004FB11009DF80010B1FBF4F100EB0110D9
:1025C000E87000E080E001207CBD01A9002021F03E
:1025D0008BF99DF80400B0FBF4F104FB11009DF8A9
:1025E0000410B1FBF4F100EB011030709DF8050010
:1025F000B0FBF4F104FB11009DF80510B1FBF4F100
:1026000001E011E03DE000EB011070709DF8060064
:10261000B0FBF4F104FB11009DF80610B1FBF4F1DE
:1026200000EB0110B07074E7A87800F00F0100090A
:1026300000EB800001EB40008DF80300687800F0AB
:102640000F01000900EB800001EB40008DF8010054
:10265000287800F00F01000900EB800001EB40003A
:102660008DF80200E87800F00F01000900EB80000F
:1026700001EB40008DF800006946002021F0E8F9E8
:1026800047E7307800F00F01000900EB800001EB14
:1026900040008DF80400707800F00F01000900EB95
:1026A000800001EB40008DF80500B07800F00F01CC
:1026B000000900EB800001EB40008DF8060001A945
:1026C000002021F00DFA24E702F0B6FC7CBD0000EA
:1026D00010000020436F6D6D616E645F31202564D2
:1026E0000A000000F8020020E0D200202DE9F041AD
:1026F0001E46244B1746DDF818C01A688046401E57
:102700000D46B8F1030F2DD80024BCF1000F01D005
:10271000ACF80040DFF870C08FB1A8F1010000EB09
:10272000002063467A1C03EB001011D09DB10024F9
:1027300022E0BEB11968891AB14204D912E000EB57
:1027400000200CEB0010C1688468A142F1D006E0C3
:102750008460C46003E0C1688068814202D00120C7
:10276000BDE8F0810020FBE732462946404627F0CD
:102770003DFE28B1641C6D1CBC42F5DB3846EFE71A
:1027800020B2EDE798000020940600202DE9F041EA
:1027900016460C46074603280CD8002505E021788C
:1027A000384627F0B3FF641C6D1CB542F7DB0120EF
:1027B000BDE8F0810020FBE72DE9F0410E4E00243A
:1027C0004FF47A77306800F40055384633F0AEFCA9
:1027D000306800F40050854209D1641C0DB1022C10
:1027E00002DC322CEEDB25B10020BDE8F0810024B4
:1027F000E8E70120F9E7000010080240F0B50020EA
:1028000001273125084C30260B7807FA00F21342D5
:1028100004EB000201D0557100E05671401C00B27B
:102820000828F1DBF0BD000047FE0020FEE70000B5
:1028300030B53E4D87B0A5F58051B5F88F00401EEC
:10284000A1F8460021F050FA39480168009141682A
:102850000191017A8DF80810016803914168049193
:10286000007A8DF8140005F191000168CDF801108F
:102870004168CDF80D10007A8DF811009DF8000028
:1028800020F00700C01C8DF8000000249DF8010016
:1028900000070BD16846FFF7D1FC9DF80000641CCF
:1028A000401E24B28DF80000032CEFDB9DF80C00D5
:1028B000204A20F00700801C8DF80C0095F88E103F
:1028C0004FF496734C0615D59DF8001040F080002B
:1028D00041F080018DF800108DF80C00D2F89C01B9
:1028E00003AA002100F080F815F88E0F40F0800058
:1028F000287011E009060FD59DF8001040F0800007
:1029000041F080018DF800108DF80C00D2F804021F
:1029100003AA002100F068F841F2883303AA69464F
:10292000054800F061F807B030BD0000E0E200208B
:1029300048920708BE800708E0D400200EB516486C
:102940000168009141680191007A8DF808001348F0
:10295000D0F80F10CDF80110C07C8DF805000F489D
:10296000803890F88E00000607D59DF8000040F0F2
:1029700080008DF80000032000E00220C0EBC001C1
:1029800001EB001006494FF4FA7308446A4600212F
:102990006E3000F029F80EBD4892070860E3002071
:1029A0005E780708704700000EB50C4800236A46A1
:1029B0000168009141680191007A8DF8080008488B
:1029C000D0F81210CDF80110C08AADF80500054806
:1029D0001946D0F8C00100F007F80EBD489207086C
:1029E00060E30020BE80070870B515460E4604005F
:1029F00006D0FDF76CFC024600230521204603E0CB
:102A000000230122052117A00AF0F6FE4FF0010372
:102A10001EB109220621304602E00122052112489A
:102A20000AF0EAFE4FF002031DB1092207212846F1
:102A300002E0012205210C480AF0DEFE00220323F9
:102A40000C2110460AF0D8FE014608482BF09EFFE4
:102A5000411C01D0C0B270BD05494F2081F8FA0F6A
:102A6000FF2070BD2D000000BC8007082EBD002097
:102A7000E0C200207047704770477047FEB5802164
:102A80003448FDF7E5FB334D232003222870681CF2
:102A900031490FF0FDF8304C2C260820933CEE71A4
:102AA00094F8911099B1A4F58050A0F8421021F04B
:102AB000A7F805F108000D22A4F56461FDF7F1FB0C
:102AC0002846FDF704FC00B22E54401C00B294F8D6
:102AD000991094F89B3094F89A208DE80E0094F8A1
:102AE000983094F8972094F896102844FEF7BCFE8E
:102AF0001848FDF7ECFB00B220212E54401C00B218
:102B0000164C2954401C00B294F8EF3394F8F0238B
:102B1000284413A12CF0D2FF0E48FDF7D8FB00B2D9
:102B20000D212954401C00B20A212954401C01B235
:102B300008482BF02BFF401C08D00C48FDF7C7FBC2
:102B400001460A482BF022FF401C02D14F2084F896
:102B5000FA0FFEBD87FE002073E30020E0C20020D4
:102B6000454352233A25752F257500005A650708FD
:102B7000704770470EB50D484FF42F736A460168D1
:102B8000009141680191007A8DF808000848D0F85A
:102B90001110CDF80110407D8DF805000548002189
:102BA000D0F88C02FFF720FF0EBD00004892070806
:102BB00060E30020BE80070808B5154800230A22FC
:102BC000D0F80C0205210AF017FE0123022205218C
:102BD00010480AF011FE104802231A46B0F88F0080
:102BE000ADF80000194668460AF006FE00220323ED
:102BF0000C2110460AF000FE014608482BF0C6FEE4
:102C0000401C03D106494F2081F8FA0F08BD00008F
:102C1000BE800708BC800708E0E200202EBD00202F
:102C2000E0C2002010B521488AB0214C0168009113
:102C300041680191007A8DF808001D480F34D0F8E2
:102C40001310CDF80110C07D8DF8050019482388B8
:102C500019A1D0F8AC2203A82CF030FF02460023C3
:102C6000052103A80AF0C8FD60880223ADF8200002
:102C70001A46194608A80AF0BFFD032309220721B6
:102C800068460AF0B9FD002203230C2110460AF021
:102C9000B3FD01460A482BF079FE401C03D10949D7
:102CA0004F2081F8FA0F0AB010BD000048920708C3
:102CB00060E30020BE8007082573282575290000E1
:102CC0002EBD0020E0C2002010B52F4886B001685C
:102CD000039141680491017A8DF814100168009104
:102CE00041680191007A8DF808002848B0F80F106B
:102CF000ADF80D10D0F81110CDF80110407D8DF811
:102D000005002248803890F88E0000060DD59DF809
:102D10000C0040F080008DF80C009DF8000040F0A1
:102D200080008DF80000012000E00020C0EBC00111
:102D300001EB0011164808446E300446FDF7C7FA4F
:102D400002462046002305210AF056FD01230922F0
:102D5000872103A80AF050FD0223092207216846B3
:102D60000AF04AFD002203230C2110460AF044FD1C
:102D7000014608482BF00AFE401C03D106494F20AB
:102D800081F8FA0F06B010BD4892070860E30020F2
:102D90005E7807082EBD0020E0C2002030B548480C
:102DA000474C87B090F8811842F28F00204404F518
:102DB000805491B3014601200DF04AFDA4F85C0057
:102DC00010B1401EA4F85C0021F074FA3D4801687F
:102DD000009141680191017A8DF808100168039112
:102DE00041680491007A8DF8140037488169CDF864
:102DF0000110C169CDF80D1090F820008DF8110078
:102E00009DF8000020F00700C01C8DF80000002491
:102E10009DF80100000705D010E0FFE70721FFF74C
:102E2000F7F9CFE76846FFF709FA9DF80000641C40
:102E3000401E24B28DF80000032CE9DB9DF80C0045
:102E4000214C20F00700801C803C8DF80C0094F889
:102E50008E101E4A4D064FF4967315D59DF800103E
:102E600040F0800041F080018DF800108DF80C00DA
:102E7000D2F89C0103AA0021FFF7B6FD14F88E0FCB
:102E800040F08000207011E009060FD59DF8001079
:102E900040F0800041F080018DF800108DF80C00AA
:102EA000D2F8040203AA0021FFF79EFD42F210733C
:102EB00003AA69460648FFF797FD07B030BD00003A
:102EC000E0C200204892070860E30020BE800708A7
:102ED00078D500203EB51648164C90F88F00401E5D
:102EE00084F8210021F014FB002084F8E902124844
:102EF0004FF448736A460168009141680191007A75
:102F00008DF8080004F58450D0F81110CDF80110A8
:102F1000407D8DF805009DF80000002120F007009D
:102F2000801C8DF8000004F2DD20FFF75DFD3EBD42
:102F3000E0E20020E0D2002048920708704700003D
:102F40002DE9F041234E002710B13770B7803FE0E4
:102F5000214D022085F8220005F5805090F88E0062
:102F600000F01F04A01E1A2824D2DFE800F013137B
:102F70001323231323131313130D132323232323A7
:102F8000231313131323231301203070B780FFF78B
:102F900075FD0FE0307860B1042C02D1B08815289F
:102FA00007D00E4904EB440001EB400050F8040C3C
:102FB0008047B480B088072801D13770B7800848AF
:102FC000A5F8587090F8FA0F10B10020BDE8F08114
:102FD0000120FBE7FC030020E0D20020B8680708CE
:102FE000E0C20020704770470EB516480168009196
:102FF00041680191007A8DF808001348D0F80F104D
:10300000CDF80110C07C8DF805000F48803890F88D
:103010008E00000607D59DF8000040F080008DF876
:103020000000072000E00620C0EBC00101EB00100B
:1030300006494FF4FA7308446A4600216E30FFF7E0
:10304000D3FC0EBD4892070860E300205E780708B5
:1030500010B52F4886B00168039141680491017A48
:103060008DF814100168009141680191007A8DF883
:1030700008002848B0F80F10ADF80D10D0F8111066
:10308000CDF80110407D8DF805002248803890F879
:103090008E0000060DD59DF80C0040F080008DF8E4
:1030A0000C009DF8000040F080008DF80000052025
:1030B00000E00420C0EBC00101EB001116480844F9
:1030C0006E300446FDF703F9024620460023052131
:1030D0000AF092FB01230922872103A80AF08CFB46
:1030E00002230922072168460AF086FB00220323F7
:1030F0000C2110460AF080FB014608482BF046FCE4
:10310000401C03D106494F2081F8FA0F06B010BDCC
:103110004892070860E300205E7807082EBD002073
:10312000E0C200200EB50D4840F2D5736A46016832
:10313000009141680191007A8DF808000848D0F8A4
:103140001210CDF80110807D8DF805000548002192
:10315000D0F88401FFF748FC0EBD00004892070834
:1031600060E30020BE80070810B54648464C8AB090
:1031700090F88F00401E84F8280021F081FA43481F
:103180000168009141680191017A8DF80810016889
:10319000039141680491017A8DF814100168069139
:1031A00041680791007A8DF8200004F58450816908
:1031B000CDF80110017F8DF805100169CDF80D10D3
:1031C000017D8DF81110B0F81510ADF81910C07D03
:1031D0008DF81B009DF80C0020F00700801C8DF876
:1031E0000C009DF8000020F00700801C8DF8000006
:1031F0009DF8180020F00700801C8DF8180094F846
:103200000F0304F2FF24C00614D521462048FDF721
:1032100080F81F48FDF75BF81D4908441D49D1F8A7
:103220006C12FDF776F840F6543303AA00211848D3
:10323000FFF7DAFB2046FDF74AF802460023052196
:1032400020460AF0D9FA01230922872106A80AF0AC
:10325000D3FA02230922072168460AF0CDFA002298
:1032600003230C2110460AF0C7FA01B20A482BF0DA
:103270008DFB00B2401C03D108494F2081F8FA0FA2
:103280000AB010BDE0E20020E0D20020489207081A
:1032900047FE0020BE8007082EBD0020E0C20020AF
:1032A0002DE9FE4F224D0024A5F5805841F215313D
:1032B000A146DFF880A008EB010B08F5005729E0D4
:1032C00004EB440108EB410642F29000805D401E91
:1032D00085F82C0021F0F2F985F82193DAF8001036
:1032E0000091DAF8041001919AF8080006F50256E8
:1032F0008DF80800D6F81100CDF80100707D8DF82A
:1033000005004FF461736A4600215846FFF76CFBD5
:10331000641C24B297F88F00A042D1DC00231A4627
:1033200019461846FFF760FB85F82C40BDE8FE8F74
:10333000E0D20020489207080EB510484FF496736B
:103340006A460168009141680191007A8DF8080091
:103350000B48D0F80F10CDF80110C07C8DF8050097
:103360009DF80000002140F080008DF80000054825
:10337000D0F84407FFF738FB0EBD0000489207085D
:1033800060E30020BE80070830B5ADF6040D0546A9
:103390000246002408496846FCF741FF00216846C0
:1033A00003E0425C491C2244D4B2A942F9D36042F2
:1033B0000DF6040DC0B230BD8CBE00202DE9F04FDB
:1033C000FF4E93B05FEA0008D6F851000790D6F898
:1033D0005500089096F859000090F06E1090306FEC
:1033E000119096F874000B9006F18000814650F819
:1033F0002B1F0E9141680F9199F83300A6F5706468
:103400000A90B4F85C000D90B4F846000C90D9F81E
:103410000710D9F80B2099F80F30DFF8A8B34FF058
:10342000000503D0B8F1020F1AD091E0DBF800706C
:103430000497DBF8047005979BF808008DF81800D6
:10344000CDE901128DF80C30DF4901A811F0A4FF7D
:1034500072E09DF8040080F080008DF804006FE0B9
:10346000DBF800700497DBF8047005979BF8080000
:103470008DF81800CDE90112D14800275A308DF897
:103480000C3009904CE0D148C7EB071100EB410A22
:103490000AF5805041F28831B0F87A0388423DD96C
:1034A000490088420BD9A0F51C501138A4F85C00E3
:1034B000463420F0FFFEA08C24F8460904E0A0F575
:1034C00098508938A4F8460020F00EFC94F82902A0
:1034D00081090BD0410603D594F81B12490605D487
:1034E00000061BD594F81B02000617D50AF59C5060
:1034F00050F80F1F049141680591007A8DF818006B
:10350000A80707D59DF8100025F0020580F080007F
:103510008DF8100004A90998FDF778FB7F1CFFB215
:10352000D4F87603B842AEDCA94901A811F034FF03
:1035300001A8099907F02EFF94F82902000788D501
:10354000607D28B19DF8040080F080008DF80400B3
:10355000002046E19D48CAEB0A1100EB410707F540
:10356000805041F28831B0F87A0388427ED9490010
:1035700025F0010588420DD9A0F51C501138A4F89A
:103580005C0045F00105463420F094FEA08C24F840
:10359000460904E0A0F598508938A4F8460020F0C8
:1035A000A3FBB8F1040F4DD094F8290281090BD088
:1035B000410603D594F81B12490605D400067DD5B3
:1035C00094F81B020006FAD5B8F1010F07F59C50DC
:1035D00057D050F80F1F049141680591007A8DF87B
:1035E0001800A80707D59DF8100025F0020580F007
:1035F00080008DF8100001A904A811F0CDFE7449D7
:1036000004A807F0C7FE002104A822F029F804A9A5
:103610000120FEF765F80498F066059830679DF87C
:10362000180086F874000499C6F851100599C6F878
:10363000551086F8590041F28F30384404A9FDF73F
:10364000E5FA9AE00798C6F851000898C6F85500C0
:10365000009886F8590094F82902810905D041069E
:1036600008D594F81B12490604D500E048E000F0A4
:10367000BDFA87E0000603D594F81B020006F4D4D7
:1036800080E050F8061FF16641683167007A86F8DD
:103690007400A80707D59DF8100025F0020580F0FA
:1036A00080008DF8100041F27D30391844486C30AC
:1036B000099011F071FE41F28F3000E08EE0391870
:1036C000099824F025FEF06EC6F85100306FC6F858
:1036D000550096F87400A7F6834786F8590007F559
:1036E00000574846396840F82B1F79684160397A9D
:1036F000017294F8AB0F80F0800084F8AB0F41E0CA
:10370000A0F2F511032902D8B8F1010F0AD0A0F2F6
:10371000F911032902D8B8F1010F5FD0B0F5977FF6
:1037200012D014E0A7F67A4707F500573868F0661C
:10373000796831673A7A86F87420C6F85100C6F87D
:10374000551086F859201DE0B8F1040F46D1DBF87A
:103750000010F166DBF8041031679BF8081086F85A
:103760007410DBF80010C6F85110DBF80410C6F82E
:1037700055109BF8080086F85900B8F1000F01D1E8
:10378000607D68B14846DBF8002040F82B2FDBF85D
:10379000042042609BF808100172B8F1040F1DD09C
:1037A0000A4994F81902B1F8CC17884200D30020D6
:1037B000A4F84800FDF7C8FBE8070DD00AE00000B8
:1037C000E0E10020489207087E920708E0C200204E
:1037D00087920708FDF7B0FCFDF726FB0AF1010010
:1037E000C0B2D4F87613824651453FF7B3AE607D40
:1037F00048B1DBF800100191DBF8041002919BF84E
:1038000008008DF80C000798C6F851000898C6F813
:103810005500009886F859001098F06611983067A6
:103820000B9886F8740048460E9940F82B1F0F99A4
:1038300041600A9901720D98A4F85C000C98A4F8F4
:10384000460013B0BDE8F08F2DE9F04F8DB00600B3
:103850004FF00009DE484F460C9003D1014600208E
:10386000FDF73EFFDA485838804650F8581FC0F838
:1038700012104168C0F81610017A8176D54841F6D9
:10388000EA71044690F8EC28214404F5805405912F
:10389000002A7CD06179002979D1CD48DFF838B38E
:1038A00087380490A0F65240029000F66D400090D8
:1038B0003F3003904838A0F163050190002060E19B
:1038C00020F0DEFE94F80F0300071ED5022F01D072
:1038D000012753E10699C5F851100798C5F855001E
:1038E0009DF8200085F8590094F8280000EBC002EC
:1038F00002EB0A000D3800F500500160D5F85510B4
:10390000416095F85910017213E0022FE1D094F84C
:10391000280000EBC00101EB0A000D3800F5005053
:103920000168C5F851104168C5F85510007A85F84E
:103930005900DFF8A8A2DAF80010C5F86310DAF829
:103940000410C5F867109AF8080085F86B00049811
:1039500002F054F900287ED04046DAF8002040F802
:103960002B2FDAF8042042609AF8081001729C4963
:103970008A89A8F82C208B7B88F82E3094F80F03C6
:10398000C00705D0032E23D0022E21D052E004E13F
:10399000D5F85100C5F86300D5F85500C5F86700A3
:1039A00095F8590085F86B00042084F8AB0F039953
:1039B000019811F0F1FC0021019821F051FE012045
:1039C0000199FDF78DFE01990598FDF71FF931E08A
:1039D000D5F85120C5F86320D5F85510C5F8671003
:1039E00095F8590085F86B0094F8ACCFBCF1990FAD
:1039F00006D194F8ADCFBCF1990F01D1992B1DD010
:103A0000EA66296785F8740076490398FDF7FEF8A1
:103A1000042084F8AB0F0399009807F0BBFC0098D2
:103A200021F06BFEDDE9001024F072FC06A801997C
:103A300024F06EFC6EB1042E0BD00CE0DAF800100E
:103A4000E966DAF8041029679AF8080085F8740026
:103A5000F0E7FDF7AFFC022E02D0032E67D08DE019
:103A600094F80F0380075DD5019802F0C7F818B9E4
:103A700094F80F03400755D5B9F1000F08D1DBF8D2
:103A80008401022F4FD00C9914F0D2F84FF00109A5
:103A90001B2003F06DFB94F80F03C00617D55248A6
:103AA0000299FCF736FC5048FCF711FC4E4A2021E5
:103AB0001154401CDBF86C121044FCF72AFC94F8FB
:103AC0000F03C00731D00099474814F0B1F8202205
:103AD00040214548FCF7B5FBDAF800100991DAF807
:103AE00004100A919AF808008DF82C00B4F80C0321
:103AF000ADF825000298FCF7EAFB02463A48029925
:103B0000FCF78DFB02208DF82400374809A91030FE
:103B100009F001FE34482521417400218174019986
:103B200014F086F82AE006A9AEE70499CCE794F8E9
:103B30000F03C10716D0800714D5049802F05EF871
:103B400018B994F80F0340070CD5DDE9011014F003
:103B50006FF894F80F03C00604D5DBF86C020099E7
:103B600014F066F8DAF80010C5F86310DAF80410FB
:103B7000C5F867109AF8080085F86B0094F82800DB
:103B8000401CDFF850A084F82800C1B29AF8EC0875
:103B90008142FFF495AE012F08D0207A002802D18F
:103BA0000599FDF79DFD0DB0BDE8F08F002005994A
:103BB000FDF796FD4046022750F86A1F06914168BE
:103BC000079198F872008DF820004FF0000975E613
:103BD000B8E20020E0C20020BE8007084892070833
:103BE000E0D500207592070847FE00202DE9F04738
:103BF000594D8AB0A5F5805895F829024FF0010675
:103C0000400741F6F379404650D4793800F500502A
:103C10000168069141680791007A8DF820004F49AC
:103C200006A811F0B9FB002495F81C0206FA04F16D
:103C3000084234D004EBC40101EB080707F5FC503F
:103C400050F8731F009141680191007A8DF80800C7
:103C500006A9684611F0A0FB4149684607F09AFBA7
:103C60000021684621F0FCFC69460120FDF738FD83
:103C700095F82902000705D49DF8000080F0800027
:103C80008DF80000687D28B19DF8000080F080006C
:103C90008DF8000007EB09006946FCF7B7FF641CCC
:103CA000E4B2082CC0D30AB0BDE8F087A63800F50E
:103CB00000500168009141680191007A8DF8080078
:103CC000684601F09BFF0028EDD00024B24695F82D
:103CD0001C120AFA04F0014239D004EBC40101EBD2
:103CE000080606EB0907384601F088FF78B3384626
:103CF00001F084FF58B30D3E06F5005618493068B0
:103D0000039070680490307A8DF8140003A811F0C5
:103D100043FB694603A807F03DFB124903A811F0D5
:103D20003BFB0F4903A807F035FB002103A821F056
:103D300097FC9DF80C0003A900F0FC008DF80C0026
:103D40000120FDF7CDFC384603A9FCF75FFF641C9A
:103D5000E4B2082CBBD3A6E7E0D200207E9207088D
:103D60008792070831E20020814201D90020704784
:103D7000401A00EBD070C0F3470070472DE9F84FB0
:103D8000584A574E1823107838B3B2F805900A20D5
:103D9000315C00F101000029FAD1009050784FF019
:103DA0000C014FEAC000B0FBF1F4DFF83CA1DFF8F2
:103DB0003CB1AAF80040D478AAF80440AAF806104A
:103DC000AAF80830AAF80A304FF00004B2F80550FB
:103DD0002046CDB3AAF8020044E005200021A2F855
:103DE0000510D371B2F80890D2E7705D38B10128A0
:103DF00019D00020D4465B46BAF80A101BE057469B
:103E0000BAF80A10D8460BEB04002022FCF719FA86
:103E100078890444002008F804007888641C401C59
:103E200078806D1C1EE0AD1C1CE0814202DD1A553D
:103E3000401C641C6D1CAF4202DD725D002AF4D18F
:103E40002022C7B26D1C03E019E01A55401C641C07
:103E50008142FADC0BF80470BCF80200401CACF89C
:103E60000200641C1F480789AF42BEDCBAF80A2072
:103E7000BAF80210521C5143CAF80C1003E0AAF819
:103E80000200CAF80C000020A0464FF4A0570346D9
:103E90005A4606E000994518715D91B11155401CD4
:103EA000641C484501DABC42F4D3DAF80C10A4EBE8
:103EB00008021144CAF80C100D4901200870BDE831
:103EC000F88F00216D1C02E01355491C641C16F884
:103ED00005C08C4501DDBC42F6D3801CE1E7000043
:103EE0000040024000400240946A0020A46A002082
:103EF000E802002070B5294D41F687732A4695F8EF
:103F0000E10392F8F71FD41830B101280CD0022831
:103F100015D0032829D121E0E1B1012927D00229B8
:103F200030D0032921D126E021B3012923D0022951
:103F300025D0032919D12046FEF780F91FE031B1C1
:103F4000012907D0022912D003290ED11AE02046F8
:103F5000FEF796F92046FEF7A9F913E039B10129D9
:103F600010D0022907D0032909D0002070BD2046B7
:103F7000FEF786F906E02046FEF760F902E02046EB
:103F8000FEF772F9064890F8871F01F0F80180F8F3
:103F9000871F002085F8F70F012070BDE0C20020C8
:103FA000E0D2002010B50F4C0F4894F8F71F39B13C
:103FB000012908D002290BD0032907D0002010BD09
:103FC000FEF774F904E0FEF75BF901E0FEF736F95D
:103FD0000648022180F8871F002084F8F70F01208F
:103FE00010BD0000E0C2002067E20020E0D2002007
:103FF0002DE9F0410546501E1446294A0127294E55
:1040000000F00F00177007FA00F03278C0B22AB93A
:104010000A78024000D00122521C327002F0FF0CDC
:10402000214ABCF1020F01D9377007E006D183F0B5
:10403000790353710B7843EA000305E083F06E03C4
:1040400053710B7823EA00030B705079174E7928CF
:1040500021D0D6F85815D01CFCF75BF91448002382
:104060001A4690F8DA1A0A2023F02CF906EB850597
:10407000FF222868002105F04DFF20060ED5286894
:10408000FCF725F9014604F00F00BDE8F0410123DB
:10409000FF2206F071BAD6F85415DCE7BDE8F081CE
:1040A000440500204205002047FE0020BE8007088E
:1040B000E0F2002010B500F007F8024890F8FA0F7F
:1040C00010BD0000E0C2002010B50FF0ABFB0028CF
:1040D00016D00DF04DFD2149412801F580542DD910
:1040E000002248280DD2A4F8400005E00DF040FD64
:1040F000A0F142010629F6D3B4F840004228F5D0D9
:1041000010BD08D191F8F30F0028F9D081F8F32FF2
:10411000A4F8442010BD91F8F33F8342FAD081F80F
:10412000F30F483880B2A4F84400B1F82D35984216
:10413000F0D9A4F8442081F8F32F10BD91F8C123E1
:104140008242FAD1207C4628F7D094F82300002838
:10415000F3D11B2081F8FA0F10BD0000E0C200204F
:10416000234991F8021411F00F011BD097282ED08B
:1041700008DC152817D0812818D082281CD0852863
:1041800008D11EE09A2828D0CF282CD0E1280FD0C3
:10419000F8282AD0A0F18001302903D2154900F077
:1041A0007F00085C704701291BD00CE0022901D078
:1041B0007E2070477D207047012906D0062910D047
:1041C00009E0062901D0402070477B20704706296E
:1041D00001D07C20704760207047022901D05E200A
:1041E00070475D207047242070475B2070470000B7
:1041F000E0C20020A89E0708401C0022C0B2114661
:1042000026F0F4B82DE9F0473C4E86B0040001D109
:1042100096F8FA4F0025FF2C15D0DFF8E490394EC0
:104220004FF4FA7A99F80000A04216D1002C07D07A
:104230003068002804D1C6F800A00120FEF758F825
:1042400006B0BDE8F0870020FEF752F896F8FA0FA6
:10425000FF28F5D186F8FA5FF2E744B30221002087
:104260002FF082FD284FD7F8F402FCF730F8C1B2E6
:104270000E20FFF779FD401CC1B20022D7F8F402EE
:104280002FF05EFD601E4FF00108632815D807EB84
:104290008405D5F85003FCF71AF8C1B20E20FFF7D9
:1042A00063FD401CC1B24246D5F850031CE010B378
:1042B000002108462FF058FD1DE00095019502955C
:1042C0000395D7F8F402FCF702F80246D7F8F41287
:1042D0006846FBF7A4FF214668462AF097FE8DF852
:1042E0000E504246072168462FF02AFDC6F800A06E
:1042F0000120FDF7FDFF89F80040A1E7E0C20020A2
:1043000004050020A0000020BE8007082DE9F84F1A
:10431000F84CA4F58055A67D95F8C103B04204D1B0
:104320004FF4FA60A4F8490FF6E3B4F840000F2107
:10433000B1EB102F39D095F8FA0F002835D1DFF8FE
:10434000B883EE48002798F80010009039B184F83F
:10435000877F0822EA4923F077FF0DF0DFFA304625
:1043600013F056F80028E9D198F80000DFF8989388
:104370000028DFF890A399F8000007D017280BD188
:104380009AF80000022803D1062008E0172803D17C
:104390009AF80000042809D030460BF0B1FB95F8DC
:1043A000EA1F41B10E2806D0A775B3E30620032209
:1043B0008AF80020F3E7E17B09B9617849B1102858
:1043C00007D2D249097B1F2903D00E2085F8FA0FA6
:1043D000A0E3C949097839B9B4F93620002A02DACC
:1043E0005242E28600E0E786C31EC94ADFF824B3E2
:1043F000C94E4FF001080C2B77D2DFE803F0FE0620
:10440000FD9F76FDFEFC767676FBB4F8400010F456
:10441000706F14D0C0F303200F280CD004210C229D
:10442000084602F0FBFCB94899F80020817A511A3D
:10443000491C89F800104720A4F840006AE344288A
:104440001DD046281BD099F800104A46A9B39AF807
:10445000001091B39BF800307BB3B04B187868B371
:10446000A54F401C87F8008018708BF8008006F07C
:1044700031F900286FD095F8FA0F00B398E395F85A
:10448000DB0FA24A401CC0B285F8DB0F12799042C4
:1044900002D9404685F8DB8F29B1B4F9360068B1FE
:1044A00090421FDC01E0C0B2E08694F8360085F847
:1044B000DB0F042006F0F6FB74E109E012E0984DF2
:1044C00096F8DA1A2A79A87802F0A8FCA978B5E259
:1044D000B4F93610A1F16703052B0BD26B2905D176
:1044E000472803D085F8FA8F62E3B6E3E08E01F047
:1044F0001BFC5DE319B1491E11708BF80070107838
:1045000010B19BF8001039B980490979814212D95C
:1045100088B1401C89F8000082490E2008700420F0
:1045200006F0C0FB80488BF8007007807B488AF853
:104530000070077040E389F80080EDE7A06B20F47D
:104540008030A063B4F84000442805D0462803D04A
:1045500047281FD0FDE191E249B1B4F93610002996
:10456000C0D06A4A12799142BCDC85F8DB1F44282E
:1045700095F8DB0F09D000F23D201BF01DFC85F8FB
:10458000DB8FFF2006F08EFB12E300F237201BF0DA
:10459000BBFBF4E75D48017B29B11F292FD09BF8B5
:1045A0000000B0B12BE0817A0180C17A01714771BE
:1045B000C0F8069080F80C805C48026002F051FC64
:1045C000312006F06FFB57490E2008708BF8007001
:1045D000EEE24E48D0F80610807A09780844401E72
:1045E00089F80000504807804C488AF8007007702E
:1045F000414803E02BE227E2F2E226E3077099F854
:1046000000000028A6D09AF8001001295CD13A4990
:104610000978E9B39BF8002022B184F8877F1F282E
:1046200003D041E001F09CFAC2E295F8810880B322
:10463000A4F85C70B1EB400F5AD8002211463CA0A0
:1046400005F068FC2C482E49012200784E39081AE2
:1046500002214F3005F05EFC012000990CF0F8F8C3
:10466000A4F85C00F0B3B4F84000442813D0B5F8C7
:104670007C08E0860021012001F044FDB5F87C08AB
:10468000B4F93610884206DA95F8CF132B4801E0CA
:104690001AE009E00170B4F85C00E086002002F046
:1046A000C3FA012002F0C0FAB4F9360000283FF442
:1046B00019AF1D49401E0880184807700E48077042
:1046C00085F8FA7F8BF8008099F8000000214928CE
:1046D00073D04EDC422871D044DC19287CD02528C8
:1046E00064D000E02CE03D286AD0412869D169E01F
:1046F00036E00000E0D200204305002068E2002000
:104700002BFE00203F05002041050020C4FD0020B5
:10471000A5AC000840050020E0F200204205002082
:104720002CBE0020440500203A050020F80400209B
:10473000504C5520434F4445000000002205002006
:104740000021084601F0DEFC30B1002000990CF099
:104750007FF8A4F85C009EE795F8CF13FA4826E2AC
:10476000E786BFE6462865D0472869D0482828D183
:104770006CE04A3809286FD2DFE800F09A057B9296
:10478000D0D00F957E00F1480021D0F82C012AF0FE
:10479000ABFC00B3A5F87C78CAE0002010F0FEFC6A
:1047A0000D2007E0002002F0E3F9B3E1032010F050
:1047B000F5FC052006F030FCF4E74EE06DE00BE080
:1047C00068E0C6E0E1480121D0F8B0082AF08CFC8E
:1047D00008B102F019F9ABE00123DDA219461B2054
:1047E0000FF03AFD0646012806D0022E0AD06D2EA3
:1047F00009D06C2E07D09BE095F805080A2837D918
:104800006D2600E06C26D148012100EB860000688F
:104810002AF06AFC60B3D2486D2E4FF0800207D0B8
:10482000D049FBF7FCFCA06B20F40070A0637FE094
:10483000CD49F6E7C548CA49D0F81801EA3111E078
:10484000C248C749D0F81C01DC310BE0BF48C4495D
:10485000D0F82001E33105E060E0BC48C049D0F861
:104860002401F13122F096FE10B9242085F8FA0FC8
:104870005EE013F0D3FD5BE016F098FA442017F0E9
:1048800069F8462017F066F814F020FB06201EF0A9
:1048900013FD4DE014F068F94AE007F0E1FC47E051
:1048A0004FF4805001E04FF400500DF097FA3FE0D4
:1048B0004FF480452E114FF400684FF6FE7401232B
:1048C000AAA200214A200FF0C7FC411E092922D8C4
:1048D000523080B2A0F153010A291CD2DFE801F066
:1048E00005070B0D0F1113151719022000E02846BC
:1048F0000DF074FAE3E70120FAE70820F8E7042056
:10490000F6E71020F4E72020F2E74020F0E73046F9
:10491000EEE74046ECE7A042D1D109E0C9B1032956
:1049200006D0894885F8EA7F95F8CF130170F1E049
:10493000914899F80020817A9048511A491C89F8C9
:1049400000108BF8007007808D488AF8007007709F
:1049500028E78D488B4901608C48007898B18848D9
:10496000007800287FF4FDAE99F8000000283FF49D
:10497000F8AE8BF8008005F0ADFE00287ED095F8EB
:10498000FA0F20B314E199F80000E8B394F8380066
:10499000000739D49AF800007949401CC0B28AF85F
:1049A00000000F700228E4D9012022F067F996F880
:1049B000DA0A032806D1012022F06EF90221002034
:1049C0000DF0FAF8724896F8DA1AC170D1E79AF841
:1049D00000005746B8B399F80010172914D00128E1
:1049E0000AD96B4D2A79E978A87802F017FAEA78A3
:1049F000A978684805F08EFA6448007820B13878C4
:104A0000401C3870012000E01CE022F037F996F8D5
:104A1000DA0A032806D1012022F03EF90221002003
:104A20000DF0CAF8002002F0A3F805F053FE0028AC
:104A30002BD0208FC00505D455488178FF225548DA
:104A400005F068FAB4E0B7E01EF09CF9B0E0A06BA6
:104A500051490840A063B4F84000A0F570414539C1
:104A600015D010F4706F2CD04320A4F84000002023
:104A700002F07EF8042002F0D7F800E005E0E06ED6
:104A80000422002105F046FA4320BDE8F88F4520B6
:104A9000A4F8400089F8007094F8BF0100F0080005
:104AA00084F8BF01002002F063F82FF06BF80420B7
:104AB00002F0BAF8E06E0422002105F02BFA45203E
:104AC000E3E731495E460A609AF800109BF800203F
:104AD0004FF0040B0A4320D04C4600202FF00EFB71
:104AE0002548017B09B1217869B3807A2178081AB9
:104AF000401C2070254885F8FA7F077020783030F8
:104B0000C0B206F0CFF81D48377007801C488AF8FD
:104B1000007007700120B8E79EE0442840D0462886
:104B20003ED006F037FA85F8EA7F4720A4F8400027
:104B30000648042200210069E06605F0EBF91749F8
:104B400081F800B034E03CE022050020BE80070878
:104B50004B2E424F41524420545950450000000012
:104B600001C700208D6D0708067E070853454C4598
:104B70004354204954454D00C4FD00203A0500200F
:104B800042050020A1AC0008F804002043050020E5
:104B90002CBE002047FE0020C7FFFEFF440500207A
:104BA00089F80070FF2006F07DF832480E21017070
:104BB0009AF800000228ADD094F83800C006A9D4B5
:104BC000F0E5062101800D2101714771C0F8064012
:104BD00007731F21817280F80BB084F8008089E789
:104BE000A16BC90334D4B4F8400047283BD19BF8EB
:104BF000000088B320480078022834D9401E8AF883
:104C0000000096F8DA0A40B102F00EF896F8DA0AD7
:104C10001A49401E86F8DA0AC87096F8DA0A02F0D5
:104C200003F8174807701748077005F053FD002870
:104C3000C1D095F8FA0F00287FF4B7AD0F48FF22D6
:104C40008178114805F066F964E7A16BC9030AD5BC
:104C50000E49096888475DE705E0B4F8490FA0F6FA
:104C6000B830642801D200200FE794F84A0F0028DA
:104C7000EAD10AE7440500203E0500202CBE0020B2
:104C8000430500204205002047FE0020F8040020D4
:104C9000194810B5B0F8491FB1F57A7F2AD26422BD
:104CA000B1FBF2F302FB13120ABBB0F93620A0F5F8
:104CB00080530AB1632A03DD012083F8FA0F10BD87
:104CC0001144A0F8491F417E002289B190F8AB1F22
:104CD00001F0030183F8F71F08494B6A0B608B6AE8
:104CE0004B6091F82C300B7242760CF017FE01E00D
:104CF00003480270002010BDE0D2002067E20020CF
:104D0000430500202DE9F0035B4A92F8F803000701
:104D100074D55A4E5A4B30780D2804D00C286DD1DA
:104D2000302083F8420093F8430093F84210554F27
:104D300000EB01105049A0F54C70C0B291F8FF1380
:104D40004FF00309262812D008DC02280FD02028B3
:104D50000DD021280DD025281CD115E0272813D0EF
:104D6000282804D029280FD0372813D104E00806BA
:104D700010D582F8FC9F11E0C8060BD593F84400CB
:104D8000392807D1022002E0480603D5042082F822
:104D9000FC0F03E092F8FC0F01286AD93B483A491E
:104DA0000468C1F807404568C1F80B50047ACC7319
:104DB00093F84CC093F84D0007EB0C1C8444A1F50C
:104DC000786080F888CF93F84A8093F84BC007EB5F
:104DD0000817674480F8897F93F849704FF0010CF9
:104DE000303F80F88A7F92F8FC7F2022042F06D083
:104DF00090F80A80B8F1000F0ED017E039E0D1F832
:104E00000780C1F82B80C1F82F5081F8334080F81B
:104E1000AB9F80F819C00BE0D1F80780C1F8228061
:104E2000C1F8265081F82A4080F80AC0022F1ED00F
:104E300083F8432083F84220042F01D000214176DB
:104E4000052030700020C0F14801C0F14E055C5CC7
:104E5000401C5C55C0B25A540728F4D3BDE8F00397
:104E60000749094808224E31083023F0EDB90720E0
:104E7000E7E7BDE8F0037047E0C2002043050020EB
:104E8000DDFD0020D0FCFFFF60E200204892070813
:104E90002DE9F0410EF0C6FC002847D00CF068FE6A
:104EA000604E044606F50055B07595F8D80AA5F58C
:104EB0004057800619D520460AF022FE02465A487D
:104EC00020230021A0F1060C0C2A35D005DCDAB134
:104ED000042A29D0062A04D12AE00E2A66D00F2AF5
:104EE00022D09CF8020000287ED0402C0BD207EB89
:104EF0004400B0F82104A0F13001092916D92E2868
:104F000014D02F2871D08AE09CF8002065465AB151
:104F1000837043700370C1700C4604220321424821
:104F200004F0F8FF2C703FE004F58070BDE8F081DC
:104F3000032001F0EBFCF7E70E468CF80210B5F801
:104F4000D81A644621F04001A5F8D81A9CF801103F
:104F5000491C11F0FF018CF8011006D0012908D07E
:104F600002290CD003290ED0667004220021612092
:104F700002E004220021412003F0F0FF14E00422AB
:104F800000212A20F8E78370437003700546C6703D
:104F900004220321244804F0BDFF04220021402004
:104FA00003F0DCFF26702E700020BFE79CF8002085
:104FB0006446DAB1837043700370C1700E460422F8
:104FC0000321194804F0A6FF2670B5F8D80A10226C
:104FD00020F02000A5F8D80A14491548FBF71FF95E
:104FE00004202FF00BF9DFE705E011E0114997F8F5
:104FF000CF030870E9E79CF801000328204603D09E
:10500000BDE8F0410BF01AB8BDE8F0410EF0C4B9AC
:1050100096F83800C00602D443F2300086E744F424
:10502000807083E7E0D20020760400207CBE002060
:10503000A8FD00202205002010B5064C6079A1795A
:10504000884201D1002010BD2FF0C8F80248A17994
:10505000405C10BD180000207005002070B51E4C8B
:10506000E06C616C884201D3401AA16D081AB0F55A
:10507000006F27D294F85C00022823D201F000FFD1
:10508000164804221146D0F8440304F043FF0320DD
:10509000FDF72EF9124D06E095F8F503401EC0B25B
:1050A000FFF7AAF848B90EF0BDFB0028F4D00CF0C9
:1050B0005FFD95F8C1138842EED194F85C00401C66
:1050C00084F85C00E16C606C814203D3081AA16D26
:1050D000081A70BD401A70BDE0E20020BE800708CB
:1050E000E0C200203EB5D9B10F4A6C461368009368
:1050F00053680193127A8DF808200A22B1FBF2F36B
:1051000002FB1313B1FBF2F25B086B44C9075A7040
:1051100001D011015970214602F082F8012801DA0C
:1051200000203EBD01203EBD489207082DE9F04F0A
:105130000746A5488DB090F8F81349077DD500F5CE
:105140008054814690F88518A06B11B910F0060FB5
:1051500073D09D4A41F6AB711144069141F66D71D1
:10516000114441F2BA250C91154441F66C7C0B9523
:10517000944402F5F855CDF81CC00026934992F8E6
:10518000842883077ED58A460846096803914168CA
:1051900004919AF808008DF814008D490DF10D0066
:1051A000FBF73DF803A800F029FD002845D0894809
:1051B000012F804611D1DAF800200261DAF80420CC
:1051C00042619AF80810017699F8EEBF032189F838
:1051D000EE1F22F047FD89F8EEBFD8F810100091BD
:1051E000D8F81410019198F818004FF0000B8DF8C2
:1051F00008008DF800B0DAF800100891DAF8041011
:1052000009919AF808008DF8280007E003A968467C
:1052100023F07EF8704908A8FBF7F8FC03A968465C
:1052200001F0FEFF0028F1DA94F8900F8DF82000CD
:10523000684806991030069000E0C1E0FBF7E6FCF4
:1052400094F8908F84F890BFDAF800100091DAF8A3
:10525000041001919AF808008DF8080007E003A9EE
:10526000069823F055F85C496846FBF7CFFC03A984
:10527000069801F0D5FF0028F1DA8DF8008008A922
:10528000684600E027E023F043F80021684620F05C
:10529000E7F9684600F0B2FCE8B3DAF80010E96616
:1052A000DAF8041029679AF8080085F87400DDE937
:1052B0000B1099F88428FAF7B2FF6946079810F0A6
:1052C0006BF894F86C0F022F80F0800084F86C0F5C
:1052D0002AD005262AE0400772D50868E8664868A3
:1052E0002867087A85F87400DDE90B10FAF797FF54
:1052F0000420384984F86C0F2231079810F04CF8DC
:10530000DDE9061010F048F80021079820F0A8F910
:1053100094F86C0F00E007E080F0800084F86C0FD8
:10532000022F4DD0112601E0002E49D029480799BF
:10533000C63812F07DFC002189F8F81FC8460CE041
:105340000AF0A2FB1EF00EFD94F82902B04209D02B
:1053500098F8F81F491C88F8F81F98F86207C9B236
:105360008142EDD3A06B40F00400A06355F8510FCB
:10537000039068680490287A8DF81400D5F81B0013
:105380002860D5F81F00686095F82300287211483E
:1053900098F8842808300B99FAF741FFFBF776FD5F
:1053A00003982860049868609DF81400287227B15B
:1053B000084807992F38FBF729FC012084F83000B2
:1053C0000DB0BDE8F08F0000E0C200204892070851
:1053D000A9D5002060E20020519207082DE9F05F76
:1053E000FE4C4FF0000BA4F58056A07D96F8D0132C
:1053F000884202D10EF09AF92AE296F8FA1F0029A3
:105400007ED10AF07DFB10287ADADFF8D483F549E3
:105410000027022801D10A780AB188F8007096F8AE
:10542000EA2FDFF8C493F2B10E2804D006281AD070
:10543000A4F8497F0CE22EF0A5FB86F8EA7FA4F8D9
:10544000497F002001F094FBE8480770E84899F88C
:105450000020807A101A401C89F800003030C0B259
:1054600005F020FCF4E1DFF88CA3E34D0B2827D0F6
:1054700006DC012879D002287ED00628C0D1B4E00D
:105480000C285FD00D2872D00E28B9D1B4F8400096
:1054900010F4706F34D0C0F303200F28FAD0042129
:1054A0000C22084601F0BAFCD14899F80020817A14
:1054B000511A491C89F800104720A4F84000C7E1A0
:1054C000B4F84000432801D0452899D196F8EC0F54
:1054D000202280F0800086F8EC0F1021C548FAF7F2
:1054E000B0FE55F8800FFAF7F2FE02462968C1486F
:1054F000FAF795FE96F8EC0F4FF02D05000600E048
:10550000AAE0BC4C04F109040BD596F8E71F5746F6
:10551000F81D491C29F066FD3D7296F8E70F410021
:1055200007E057460121F81D29F05CFD3D7296F811
:10553000E71F204629F06AFD04221146AD4804F019
:10554000E9FC85E1B4F84000472803D0A0F570419C
:10555000453993D194F83800C0067DD5A74890F816
:10556000D80A800604D5032003E01BE004E0E9E04C
:10557000022001F0CBF96BE1B4F84000432884D15C
:1055800096F8F60398F80010401C084388F80000CD
:10559000012000F053FF98F8000080F0800088F8A8
:1055A000000055E196F8FA038006D6D50878002861
:1055B0008BD1208F00050BD401F044FC0422D5F8D8
:1055C000E807114604F0A6FCA06B40F400600AE076
:1055D00001F038FC0422D5F8EC07114604F09AFCDF
:1055E000A06B20F40060A06332E199F8000030B1B4
:1055F000B4F8400010F4706F01D1002A2CD0B4F838
:1056000040004728A5D1B4F93600A0F58070933842
:1056100010D07B4A932803D0942801D00878F0E179
:1056200096F8F503401E10801EF082FF002001F066
:105630009FFA0DE12EF0A6FA0022114671A004F0A7
:1056400069FC032271496B480CF022FB002255468D
:105650008AF80670052100E006E2664804F05AFC6C
:1056600000220C216AA004F055FC68490322091DA0
:1056700060480CF00DFBAF71002211215D4804F071
:1056800049FC0122002164A004F044FC5F4903228C
:105690000C3158480CF0FCFAAF7101220521554835
:1056A00004F038FC01220C215DA004F033FC5749C2
:1056B000032210314F480CF0EBFAAF710122112197
:1056C0004C4804F027FC0222002157A004F022FCE1
:1056D0004E490322083147480CF0DAFAAF71022232
:1056E0000521444804F016FC02220C2150A004F0CD
:1056F00011FC4649032214313E480CF0C9FAAF713F
:10570000022211213B4804F005FC0025E9B20020EB
:105710000CF052FA37480BF0C3FC94F82200400713
:1057200001D5062000E00220324910F037FA6D1C46
:105730002DB2032DEADB002001F01AFAA06B40F431
:10574000802050E796F8EC0F20F0800086F8EC0FF0
:10575000244886F8EA7F007840B12C480822364970
:10576000BC3822F071FD0CF0D9F800E0E786E07B50
:1057700048B1B4F93600012805D0052803D00E2021
:1057800086F8FA0F83E1B4F84000452802D0472894
:1057900004D00BE0607848B12F20F1E7E08E0328B9
:1057A00004D0208F400501D54FF0010B2349254837
:1057B000B8460F7022490160B4F93600DFF888A0BE
:1057C000242706287ED2DFE800F003468FA9C361B4
:1057D0000448007808B10120D2E737E0E0D2002089
:1057E0004605002043050020410500203F0500201C
:1057F000C4FD002087FE0020BE800708E0F20020E4
:1058000038050020486561643D00000024E3002065
:10581000526561643D00000046726F6D3D000000FE
:10582000456E64203D0000004E6578743D00000028
:105830004D4158203D0000002BFE0020290500208E
:10584000D1A60008F80400204405002022F0E8FD5D
:105850000120BDE8F09F012021F09AF92EF092F985
:105860004327A4F840704E218AF8001096F8EA13F6
:105870000120C90701D0A4F84280864A82F800803E
:10588000854A89F80080C2F80C8025E0012021F0CB
:105890007FF9B4F84000452805D0D5F824017F49A8
:1058A00000F0BAF9E8B12EF06DF97B484527414682
:1058B000C0F80C80A4F8407096F8EA230520D207BF
:1058C00003D000E09BE0A4F842104E228AF80020AA
:1058D000704A117089F80010A16B21F48031A16326
:1058E00082E086F8FA7FD2E0012021F051F9B4F885
:1058F0004000442807D06949D5F81C01153900F04B
:105900008BF90028EDD04427A4F84070384605F004
:10591000EBFB02200E218AF8001065E0012021F047
:1059200037F9B4F84000462807D05C49D5F8200183
:105930000E3900F071F90028D3D04627A4F8407042
:10594000384605F0D1FB032002228AF800204BE004
:10595000012021F01DF9B4F84000472807D04F4935
:10596000D5F81801C91F00F057F90028B9D0012750
:1059700027E0B8B2002111F047FCB4F8420EF0B1B4
:105980002EF000F946494748FAF7C3FC4548B9B23A
:10599000801D29F03BFB00221146424804F0BAFA70
:1059A000D5F8AC090122002104F0B4FA0DF03AFF59
:1059B0000028FBD00CF0DCF80E2086F8FA0F7F1CD4
:1059C0003FB2B6F80A08B842D3DA94F8BF0120F023
:1059D000040084F8BF0105F0DDFA47270521A4F88B
:1059E00040708AF80010042005EB8000BBF1000F26
:1059F0000068E06614D0207B002528B106E02A4824
:105A0000007888B32020BBE60125257301201FF014
:105A1000C9F8A06B20F48060A0630DB184F80C80FD
:105A2000042001F001F9B4F84000432801D04528D2
:105A300002D1012001F09CF8E06E0422002104F064
:105A400069FAB4F8400047280FD0A06B400302D594
:105A5000032011F0FBFDA06B20F03000A063B4F830
:105A60004000452807D00DE011E0042211460F4800
:105A700004F050FAEFE7E07B20B90FF069FA01205B
:105A800089F80000002001F073F83846E1E60020B4
:105A9000DFE600003F0500202CBE0020F2C70020FA
:105AA000658C070847FE002043050020768C070818
:105AB0002DE9F047284D8146D5F87603401E8842EF
:105AC00046DDC1EB0110A5F5805606EB400000F560
:105AD0008051B1F89813A1F57A71B1F57A7F37D872
