:020000040800F2
:10800000706E012099810008112802084DE10108D5
:10801000092302083DB000083D30040800000000BC
:108020000000000000000000000000008181030843
:10803000A5270108000000008D4E020859A803087A
:10804000B3810008B3810008B3810008B381000840
:10805000B3810008B3810008E5690108B381000815
:10806000B3810008F96A0108B3810008B3810008F0
:10807000B3810008B3810008B3810008B381000810
:10808000B3810008B3810008B3810008B381000800
:10809000B3810008B3810008B3810008216B010897
:1080A000B3810008B3810008B3810008B3810008E0
:1080B00059A903080DAB0308B3810008B381000878
:1080C000B3810008B3810008B3810008B3810008C0
:1080D000B38100088DCE0308B38100086DCF03087B
:1080E000816A0108AB410308B3810008B38100082D
:1080F000B3810008B3810008B3810008B381000890
:10810000B3810008756B0308B3810008B3810008D0
:10811000B3810008B3810008B381000801AC0308F3
:10812000B3810008B3810008B3810008A1230108CE
:10813000B381000841690108B3810008B3810008D8
:10814000B3810008B3810008B3810008452F0208FD
:10815000B3810008B3810008B38100083DD0030853
:10816000B3810008B3810008B3810008B38100081F
:10817000B3810008B3810008B3810008B38100080F
:10818000B3810008DFF80CD000F00EFB0048004778
:10819000C9930408706E01200648804706480047CE
:1081A000FEE7FEE7FEE7FEE7FEE7FEE7FEE7FEE7A7
:1081B000FEE7FEE7CDA80308858100082DE9F05F02
:1081C0000546002092469B46884606468146402446
:1081D0001BE0284641464746224600F0E4F8534655
:1081E0005A46C01A914110D311461846224600F053
:1081F000CBF82D1A67EB01084F46224601200021DB
:1082000000F0C2F817EB00094E41201EA4F1010452
:10821000DFDC484631462A464346BDE8F09F40EA47
:1082200001039B0703D009E008C9121F08C0042AF4
:10823000FAD203E011F8013B00F8013B521EF9D2DB
:108240007047D2B201E000F8012B491EFBD2704703
:108250000022F6E710B513460A4604461946FFF712
:10826000F0FF204610BD421E12F8013F002BFBD14B
:1082700011F8013B02F8013B002BF9D1704730B5F2
:1082800005462A460B4612F8010B13F8014B08B1BC
:10829000A042F8D01CB1002802D06D1CF1E728469E
:1082A00030BD10B5044604E00B7800F8013B03B183
:1082B000491C521EF8D2204610BDCAB2401E10F80A
:1082C000011F8A4202D00029F9D100207047421CC8
:1082D00010F8011B0029FBD1801A704710B500224D
:1082E00000E0521C835C8C5CA34201D1002BF8D1CE
:1082F000D8B2E1B2401A10BD30B5044600200346A2
:1083000000E05B1C934203D2E05CCD5C401BF8D0E4
:1083100030BD034611F8012B00F8012B002AF9D1DA
:108320001846704730B505460020034600E05B1C48
:10833000934205D2EC5CC85C201A01D1002CF6D126
:1083400030BD70B506463BF0E9FC046805460A22DC
:108350000021304600F037F82C6070BD30B50B4678
:10836000014600202022012409E021FA02F59D4265
:1083700005D303FA02F5491B04FA02F52844151E39
:10838000A2F10102F1DC30BD202A04DB203A00FA20
:1083900002F1002070479140C2F1200320FA03F35C
:1083A000194390407047202A04DB203A21FA02F05A
:1083B0000021704721FA02F3D040C2F1200291401F
:1083C0000843194670472DE9F04791460F4680460D
:1083D0000446002614F8015B2DB100F009FA00688C
:1083E000405DC007F6D12B2D02D02D2D18D0641E74
:1083F0004A463946204600F0FFF927B13968A142C4
:1084000001D1C7F8008071054FF002040BD540423E
:10841000002803DD3BF082FC0460A007BDE8F08784
:1084200046F48066E4E70028F8DA3BF077FC046065
:108430006FF00040F2E72DE9FE4F804681EA03002D
:10844000C00F0C46009021F0004123F00045B8EB2E
:108450000200A94105D24046214690461C460B46E3
:10846000024623F00040104347D0270DC7F30A000F
:10847000C3F30A510290401A019040286BDAC3F30B
:10848000130040F4801B0098924620B10023D2EBE9
:10849000030A63EB0B0B01985946C0F140025046AA
:1084A000FFF772FF06460D4650465946019A00F006
:1084B0008DF910EB08006141002487EA115284EA2B
:1084C000E7731A4340D0009A62B3019A012A4FEA37
:1084D000075215DC001B61EB02014FF0004202EA7B
:1084E0000752CDE90042001C41F5801132462B466F
:1084F00000F0E0F903B0BDE8F08F40462146F9E70F
:10850000001B61EB0201001C41F5801300185B4168
:108510002018A2F5001747EB030140EAD570B61901
:108520006D4111E06D084FEA360645EAC0754FEA25
:108530000752001B61EB0201001C41F58011490844
:108540004FEA30000019514132462B4603B0BDE8D6
:10855000F04F00F0A0B90098012240000023D0EBBA
:10856000020263EBE073009821464FEAE074B8EB37
:10857000000061EB0401E9E783F000435BE781F071
:10858000004158E72DE9FE4F81EA030404F000445E
:1085900021F0004100944FF0000B23F0004350EA1B
:1085A00001045ED052EA03045BD0C3F30A54C1F362
:1085B0000A552C44A4F2F3340194A0FB0254C1F3F5
:1085C000130141F48011C3F3130343F4801301FB3F
:1085D000024400FB034E840A970A44EA815447EAA6
:1085E0008357A4FB076802958D0A05FB07854FEAB0
:1085F000932C04FB0C542705029D4FEA065847EACA
:108600001637B5EB08056EEB070C870E920E47EA9E
:10861000811742EA8312A7FB0201B6EB0B0164EB60
:1086200000042B0D43EA0C335E1844EB1C50DA4671
:108630005146E7FB0201C5F313044FEA0B3343EA4B
:1086400014534FEA0432019C43EA0603A4F10C04DC
:108650000294009CCDE900B400F02CF903B0BDE811
:10866000F08F00200146F9E72DE9F04D81EA03047F
:1086700004F0004B21F0004514464FF0000A23F0AF
:10868000004150EA050220D054EA01021DD0C5F392
:108690000A570246C5F31303C1F31300C1F30A5688
:1086A00040F4801543F48013A7EB0608101BD64650
:1086B00008F2FD3873EB050002D308F1010801E070
:1086C00092185B41B8F1000F03DA00200146BDE8C3
:1086D000F08D00204FF48011064684460EE0171BF3
:1086E00073EB050705D3121B63EB050306434CEA46
:1086F000010C49084FEA300092185B4150EA01072B
:10870000EDD152EA030012D082EA040083EA0501A7
:10871000084305D0101BAB4106D20122002306E01E
:1087200000224FF0004302E06FF0010253101AEBF9
:1087300006004CEB085110EB0A0041EB0B01BDE8C1
:10874000F04D00F0A8B8C1F30A52C1F3130140F292
:10875000FF3341F480119A4202DA0020014670474B
:1087600040F233439A42A2F2334202DC5242FFF714
:108770001ABEFFF709BE000030B5041E71F10004F7
:1087800004DB4FF00044404264EB0101141E73F11E
:10879000000405DB1C464FF00043524263EB040328
:1087A000994208BF904230BD064C074D06E0E06894
:1087B00040F0010394E8070098471034AC42F6D328
:1087C000FFF7E4FCFC2709081C280908202A06DB1F
:1087D000CB17203A41FA02F043EAE07306E041FA8F
:1087E00002F3D040C2F1200291400843194670477D
:1087F00000487047E00509082DE9F05F82460078DF
:10880000002715468B460AF10104B946302801D0ED
:108810009DB113E014F8010B0127782803D05828E4
:1088200001D045B10AE00DB1102D07D10027102568
:1088300014F8010B02E0082500E00A250026B046E6
:108840000EE005FB080005FB06F1012701EB1046D1
:108850001FFA80F8B6F5803F00D3B94614F8010B33
:10886000294600F075F80028EBDABBF1000F05D0BF
:108870000FB1641E00E05446CBF80040B9F1000F80
:1088800006D03BF04BFA02210160C81EBDE8F09F04
:1088900048EA0640FAE710B5141E73F1000408DA3E
:1088A000401C41F1000192185B411A4301D120F0B4
:1088B000010010BD2DE9F04D92469B4611B1B1FA71
:1088C00081F202E0B0FA80F220329046FFF75CFDC0
:1088D00004460F4640EA0A0041EA0B0153465A4655
:1088E000084313D0114653EA010019D0C8F14002E1
:1088F0005046FFF758FD05460E465046594642463B
:10890000FFF742FD084305D0012004E02046394628
:10891000BDE8F08D0020054346EAE0762C4337435E
:108920000A986305E40AA0EB08000022FD0A44EA65
:1089300047540A3002D500200146E9E70105101925
:108940006941DDE9084500196941BDE8F04DA2E73C
:108950003A2800D2303820F02002412A01D3A2F177
:108960003700884201D34FF0FF30704770B58C1844
:1089700010F8015B15F0070301D110F8013B2A1133
:1089800006D110F8012B03E010F8016B01F8016B20
:108990005B1EF9D12B0705D40023521E0DD401F81C
:1089A000013BFAE710F8013BCB1A921C03E013F8E5
:1089B000015B01F8015B521EF9D5A142D8D300201A
:1089C00070BD000000B599B0012132482BF062F86B
:1089D000012108022BF09EF82F4809F00BFD002022
:1089E00000902E4801902E48029000200390022013
:1089F0000490002005904FF480600690400007909E
:108A0000800008904011099040020A9004200B90C9
:108A100001200C9000200D900E9069461E4809F030
:108A2000BDFD01211C4809F0D9FC002015904FF430
:108A300040301690002017904FF42060189015A831
:108A400000F03CF800200F9001208DF840008DF8D8
:108A50004100002011901290139002208DF85000D8
:108A60000FA90E484C3800F057F801231A460C2184
:108A70000A484C3800F07AF80123022212210748F4
:108A80004C3800F073F8012104484C3800F039F8F4
:108A900019B000BD04004000106402404C200140A9
:108AA0009000002021B1826842F00102826003E060
:108AB000826822F001028260704700000021084AAB
:108AC0001168084A1140D0E900231A4383681A4309
:108AD000C3681A431143044AC2F8041370470000E4
:108AE00004230140E030FCFF0020014021B18268F6
:108AF00042F48072826003E0826822F480728260B5
:108B0000704721B1826842F40072826003E082689B
:108B100022F400728260704730B5024600200023C4
:108B20005068104C20400D790C6844EA052420431D
:108B3000506090680C4C2040D1E903542C438D6860
:108B40002C434D7944EA450420439060D06A20F4D8
:108B500070000C7D641EE4B2234340EA0350D062EF
:108B600030BD0000FFFEFFFCFDF7FFC0F0B504467E
:108B70000D4600200021092D11DDE068A5F10A064F
:108B800006EB4607072606FA07F18843A5F10A0611
:108B900006EB460603FA06F10843E0600CE02069A4
:108BA00005EB4507072606FA07F1884305EB45065E
:108BB00003FA06F108432061072A0FDA606B561E9C
:108BC00006EB86071F2606FA07F18843561E06EBBA
:108BD000860605FA06F10843606322E00D2A0FDAE3
:108BE000206BD61F06EB86071F2606FA07F188437F
:108BF000D61F06EB860605FA06F10843206310E04F
:108C0000E06AA2F10D0606EB86071F2606FA07F1B9
:108C10008843A2F10D0606EB860605FA06F1084325
:108C2000E062F0BD816841F08041816070470000E2
:108C300038B10849096841F48001074AC2F80413B1
:108C400006E00449096821F48001034AC2F80413CC
:108C500070470000042301400020014001463029F4
:108C600004DB392902DC01F00F007047412901DBE8
:108C7000462903DD612905DB662903DC01F00F00CD
:108C80000930F2E70020F0E72DE9F04105460E46F5
:108C9000287800F080004D490870307800F080009E
:108CA0004B490870287800F007004A49087030786E
:108CB00000F007004849087011214848FFF7C8FA3A
:108CC00011214748FFF7C4FA4448D5F80110016064
:108CD000D5F8051041604248D6F801100160D6F879
:108CE000051041603B4800783B49097888420FDD18
:108CF00007E039480078401C37490870384800F0D0
:108D0000ECFF34480078344909788842F1DC14E0FB
:108D1000304800783049097888420EDA07E02D485B
:108D20000078401C2B4908702C4800F0D6FF2948D9
:108D30000078294909788842F1DB072425E0274893
:108D4000005D2749095D884200DD20E02348005D81
:108D50002349095D884216DA002409E01F48075DAF
:108D60001F48005D1D4908551D480755601C04B289
:108D7000082CF3DB1648077814480078144908706B
:108D80001248077003E0601E04B2002CD7DA00BF5F
:108D90000E4800780E490978884202D100F024F884
:108DA00001E031F01FFA094800780E49087008F018
:108DB00035F90C480078287008480168C5F801109A
:108DC0004068C5F80500BDE8F0810000DB05002023
:108DD000DC050020DD050020DE05002074C6002033
:108DE00085C60020DA05002070B50021002400208F
:108DF00030E01A4D2D5C05F00F05184E365C36112B
:108E000006EB860605EB4605EAB2154D2D5C05F02E
:108E10000F05134E365C361106EB860605EB46054C
:108E2000EBB2D5182544E9B2632904DDA1F164054C
:108E3000E9B2012400E000240A2591FBF5F605FBC8
:108E400016150A2691FBF6F605EB0615034E35546A
:108E5000451C28B21028CCDB70BD000074C6002071
:108E600085C6002010B512F0BDF9154890F8C2066D
:108E7000144909680844134908600021124880F821
:108E8000201016E0104890F82010A0F63C1000EBDF
:108E9000C10100F633400A6802604968416000F091
:108EA00089FA094890F82000401CC1B2064880F8B1
:108EB0002010054890F820000628E3DB10BD0000D4
:108EC000C8C60020D4050020C8D6002010B512F076
:108ED00099F9154890F8F7061449096808441349A8
:108EE00008600021124880F8201016E0104890F821
:108EF0002010A0F6071000EBC10100F6FE300A6852
:108F000002604968416000F055FA094890F8200075
:108F1000401CC1B2064880F82010054890F8200097
:108F20000628E3DB10BD0000C8C60020D4050020E1
:108F3000C8D6002010B51A48B0F84610A0F58050E9
:108F4000B0F8290781422ADA12F026FA154890F87B
:108F50002D07154909680844134908600021104885
:108F600080F8201016E00E4890F82010A0F6CE00F1
:108F700000EBC10100F6C5300A6802604968416033
:108F800000F018FA064890F82000401CC1B20448CE
:108F900080F82010024890F820000628E3DB10BD7E
:108FA000C8D60020C8C60020D405002010B512F095
:108FB00055FA154890F8650714490968084413499B
:108FC00008600021124880F8201016E0104890F840
:108FD0002010A0F6990000EBC10100F539600A6885
:108FE00002604968416000F0E5F9094890F8200006
:108FF000401CC1B2064880F82010054890F82000B7
:109000000628E3DB10BD0000C8C60020D405002000
:10901000C8D6002010B5194890F8F91F90F89707A6
:1090200081422ADA12F02AFA144890F89A07144971
:1090300009680844124908600021124880F820108D
:1090400016E0104890F82010A0F6640000EBC10173
:1090500000F65B300A6802604968416000F0AAF9D6
:10906000084890F82000401CC1B2064880F8201043
:10907000044890F820000628E3DB10BDC8C6002095
:10908000D4050020C8D6002010B52D48D0F8A10482
:109090002C49086000212C4880F8201016E02A484E
:1090A00090F82010A0F6711000EBC10100F66840A6
:1090B0000A6802604968416000F07CF9224890F833
:1090C0002000401CC1B2204880F820101E4890F8B3
:1090D00020000628E3DB1C48B0F848101848B0F818
:1090E000CC0781422ADA12F009FA154890F8D00725
:1090F000144909680844134908600021124880F89F
:10910000201016E0104890F82010A0F62E0000EB7A
:10911000C10100F625300A6802604968416000F02C
:1091200049F9094890F82000401CC1B2064880F86F
:109130002010054890F820000628E3DB10BD000051
:10914000C8C60020D4050020C8D600201CB5294878
:10915000B0F8C44F284814F053FC274BDA789978BC
:1091600018880DF0CBFD25494881B4F5006F3BDA36
:10917000234901EB0410102220490A31FFF74FF870
:109180001E490C8000204880009001901D4800EB93
:10919000C40000990160019941601648B0F8C40FFD
:1091A000401C81B21348A0F8C41FC4F3090413483B
:1091B0000088B0F5806F04DA1048008912498842AF
:1091C00009D00E480088B0F5806F11DB0B4800898C
:1091D0000E4988420CD109481A3000EBC4000099AE
:1091E00001600199416003E05A20024981F8FA0FB9
:1091F0001CBD0000C8C60020BC010120270E0120B4
:1092000000800F6400400F6400400F6400600F6432
:1092100010B513F0EFF8154890F8080814490968DC
:109220000844134908600021124880F8201016E015
:10923000104890F82010A0F2E67000EBC10100F693
:10924000DD200A6802604968416000F0B3F809480F
:1092500090F82000401CC1B2064880F82010054854
:1092600090F820000628E3DB10BD0000C8C60020EF
:10927000D4050020C8D6002010B54FF0FF3013F001
:1092800081F9154890F819081449096808441349E8
:1092900008600021124880F8201016E0104890F86D
:1092A0002010A0F2B67000EBC10100F6AD200A68F4
:1092B00002604968416000F07DF8094890F820009C
:1092C000401CC1B2064880F82010054890F82000E4
:1092D0000628E3DB10BD0000C8C60020D40500202E
:1092E000C8D6002010B513F07FF9154890F8800813
:1092F000144909680844134908600021124880F89D
:10930000201016E0104890F82010A0F2797000EBC1
:10931000C10100F527600A6802604968416000F0F9
:1093200049F8094890F82000401CC1B2064880F86E
:109330002010054890F820000628E3DB10BD00004F
:10934000C8C60020D4050020C8D6002010B513F0F0
:10935000D7F9154890F8BA08144909680844134920
:1093600008600021124880F8201016E0104890F89C
:109370002010A0F2447000EBC10100F63B200A6807
:1093800002604968416000F015F8094890F8200033
:10939000401CC1B2064880F82010054890F8200013
:1093A0000628E3DB10BD0000C8C60020D40500205D
:1093B000C8D6002070B56448C07A00B170BD62485C
:1093C00090F8F70200B9F9E76048407800B9F5E78E
:1093D0005D48C07C00B1F1E700245B4890F8F702DB
:1093E00000F0010018B159484078204484B2564832
:1093F00090F8F70200F0020018B154484078204479
:1094000084B2514890F8F70200F0040018B14F48B8
:109410004078204484B24C4890F8F70200F00800ED
:1094200018B14A484078204484B22546464890F80E
:10943000200006285AD2DFE800F003061B3045580A
:109440000024002553E04248B0F82D0500B9B5E7E7
:109450003F48B0F82D153C48B0F84200081A684360
:1094600085B23948B0F84200401E604384B23EE005
:10947000374890F8560900B9A0E7354890F85619D2
:10948000314890F82D00081A401E684385B22E48D6
:1094900090F82D00604384B229E02D4890F88709A8
:1094A00000B98BE72A4890F88709294991F8F61FF7
:1094B000401A401E684385B2254890F8F60F604375
:1094C00084B214E0224890F8880900B976E7204871
:1094D00090F888191C48007E081A401E684385B21F
:1094E0001948007E604384B201E067E700BF00BF17
:1094F00018480068204417490860134890F8F7029C
:1095000000F0010008B100F001F90F4890F8F702EF
:1095100000F0020008B100F0F9F80B4890F8F702EB
:1095200000F0040008B100F0F1F8074890F8F702E5
:1095300000F0080008B100F0E9F806480068284487
:109540000449086000BF39E7C8D60020BFD9002011
:10955000C8C60020D40500203EB51848407858BB46
:10956000174890F8FE0F022826D01448C07A18BB7E
:109570001248407C08B1032400E00024114801682F
:10958000009141680191007A8DF808000B482C3851
:1095900020440188ADF8011080788DF803000A4955
:1095A0006846FFF771FB05482C382044BDF80110D0
:1095B00001809DF8031081703EBD0000C8D60020D8
:1095C000C8C600200CF8080815F8080870B504464D
:1095D0000126184890F829004440164890F82A00BF
:1095E000444000250EE004EA060038B105EBC50151
:1095F000114A8818A2F1A201FFF746FB7006060E79
:10960000681CC5B2082DEEDB0B49A23901F18700B9
:10961000FFF73AFB0849483901F13600FFF734FB00
:10962000044890F82A1080F82B10002180F82A10A6
:1096300070BD0000C8D60020BBE6002010B514F0B5
:10964000B7F9154890F8EF08144909680844134918
:1096500008600021124880F8201016E0104890F8A9
:109660002010A0F20F7000EBC10100F606200A687E
:10967000026049684160FFF79DFE094890F82000AC
:10968000401CC1B2064880F82010054890F8200020
:109690000628E3DB10BD0000C8C60020D40500206A
:1096A000C8D6002010B514F097F9154890F8240991
:1096B000144909680844134908600021124880F8D9
:1096C000201016E0104890F82010A0F2DA6000EBAD
:1096D000C10100F6D1100A68026049684160FFF7D5
:1096E00069FE094890F82000401CC1B2064880F885
:1096F0002010054890F820000628E3DB10BD00008C
:10970000C8C60020D4050020C8D6002010B53F48A8
:10971000407C60B13D4890F82000012807D03C48CB
:1097200040783C49096808443A49086010BD394806
:1097300004682BF0B5FE37480460374890F8ED0F09
:1097400038B13AF035FA324840782044314908605F
:109750005AE02F48807890B12D482B30407A00F0A5
:10976000080060B9294890F82F0040B92A4890F8BD
:10977000FE0F20B9294926482B30FFF785FA2448E7
:10978000C07868B122482B30407A00F0830020492D
:109790002B31487201F68941A1F54860FFF774FA50
:1097A0001B48007920B11E49A1F61D40FFF76CFA55
:1097B00017484079A0B11A497E31A1F6924030F0A5
:1097C00051FD13482B30C07E00F0800040B110489E
:1097D000463014490A6802604A684260097A017298
:1097E0000B48807928B10E491B31A1F62640FFF7BE
:1097F0004BFA0748C07928B109491231A1F6144043
:10980000FFF742FA3AF0D4F900BF8FE7C8D600203C
:10981000BFD90020D4050020C8C6002015F80808CC
:1098200019E600200CF8080838B50546681E00B295
:109830005D49088000205D4908705D4981F8FA0F94
:1098400081F8EA0F02205B49087001205A4908702C
:109850001F205A49087047215948A0F840101F207E
:1098600058490873002006F0FBFD3FF079F901200C
:109870003FF0C6FC28F010FD00BF002006F06EFC93
:109880000090002003F052FBBDF8000000B9F4E79F
:10989000BDF80010C8B211F021FE04460E2C00D114
:1098A0004EE00C2C13D1464890F8380000F0100020
:1098B000A8B1454890F8D80A00F0200018B103205C
:1098C00006F04CFC02E0022006F048FCD5E734B973
:1098D000009816F0FDFE012006F0C2FDCDE7BDF8B0
:1098E000000000F47F40B0F5807F21D1364890F829
:1098F000D80A00F02000D8B9BDF80000C0B2402856
:1099000015DABDF80000C1B22D488175817DA0F641
:10991000DF3000EB410001882948A0F8491F03F01F
:10992000A1FB28B12348007800B909E0A5E7A4E726
:10993000009816F0CDFE25488079254908709CE7EF
:1099400000BF1F48806B20F488711D48816303208D
:1099500006F004FC3FF004F943211948A0F8401038
:109960000146C86E042200210AF064FE00200F495F
:1099700008700F4981F8FA0F124908730D490870F1
:109980000D4908700D49087006F06AFD42F2107129
:109990000B48A0F8491F002181724E200D49087024
:1099A00000203FF02DFC38BDAE060020B806002098
:1099B000C8C60020B5060020B6060020B706002065
:1099C000C8D60020AC010120C8F6002014C2002037
:1099D000B9060020BA060020002070472DE9F041AA
:1099E00006460C462EB92F4890F8200400F00F00D0
:1099F00040B9002E53D02B4890F8200400F0F0001E
:109A000000284CD0277800202070264890F82004A9
:109A100000F00F051DB9234890F820040509012D19
:109A200006D0022D12D0032D1FD0042D35D128E0F1
:109A3000607800F00F00052803DB1B492046FFF784
:109A400023F9607800F0F000607026E0657800206F
:109A50006070742D04DD15492046FFF715F903E009
:109A6000242D01DD5020607017E0607800F0F005D3
:109A700000206070502D03DB0C492046FFF704F9ED
:109A80000BE0607800F0F00500206070002D03DD31
:109A900006492046FFF7F8F800BF00BF2770BDE871
:109AA000F0810000C8C600201EF8080827F8080842
:109AB00010B504463048007830B920224F212F4895
:109AC000FEF7BFFB06F061FE2D4890F8380000F06D
:109AD0001000002838D12F2C03D13020FFF7E8FFE9
:109AE00030242E2C1AD1274890F8F70FA0B9012066
:109AF000244981F8F70F2048007828BB30201F49FF
:109B000081F84D002E2081F84E00002081F84F0092
:109B100002201949087010BD0020FCE7194890F890
:109B2000F70F88B1302C0FDB392C0DDC154890F87D
:109B3000F70F032801DD0020EDE7124890F8F70F3A
:109B4000401C104981F8F70F0B48007828B14E22CD
:109B50000A49491C481EFEF762FB084880F84E403F
:109B60000020064981F84F0003480078401C024954
:109B7000087008460078CEE7B9060020C50101202C
:109B8000C8D60020C8C6002010B501460A12CBB2C4
:109B900002F00F00141104EB840400EB440000EB0E
:109BA000C00404EB00104FF6FF7404EA800203F0D7
:109BB0000F001C1104EB840400EB4400104480B23D
:109BC00010BD00002DE9FF4782460C4691461D4618
:109BD000DDE90D780C9E134890F8E403012802D0CB
:109BE000022812D108E02B464A460FA150468DE8C4
:109BF000D0013AF06DF811E04B46224612A15046D2
:109C00008DE8E0013AF064F808E04B462A4606A1E8
:109C100050468DE8D0013AF05BF800BF00BFBDE8C8
:109C2000FF870000C8C60020253032782D2530324D
:109C3000782D32302530327820253032783A253070
:109C400032783A25303278003230253032782D257E
:109C50003032782D2530327820253032783A253050
:109C600032783A253032780030B502460C4600236F
:109C7000062113E0505C99280EDC505C00F00F00C8
:109C8000555C2D1105EB850500EB450003EBC30585
:109C900005EB031500EB8503481E01B20029E9DA44
:109CA000236098B230BD30B500240F30002101E0B0
:109CB000401E491C102902DA0578002DF8D009E071
:109CC00005782D072A0E05782B091D1905701446F5
:109CD000401E491C1029F3DB30BD30B500240021A3
:109CE00009E005782D072A0E05782B09151905704E
:109CF0001C46401C491C1029F3DB30BD01460720DF
:109D000005E04A1C125C02B103E0421E10B20028BA
:109D1000F7DA00BF421C10B200280BDD421E4B1CBC
:109D20009A5C0F2A04DA0122C2EB400210B201E071
:109D3000420010B20A7802F080020AB1421C10B24E
:109D4000704710B50121080729F0D4FE012019F051
:109D5000A3FA0121880429F09DFE012019F0A2FA3E
:109D600000BF082019F0A4FA0028FAD010BD0000A6
:109D70002DE9F04F85B0054636F07EFA38B94C2013
:109D8000F84981F8FA0FFF2005B0BDE8F08F05EB28
:109D9000450000EB0510F44901EB4000D0F80CB091
:109DA00005EB450000EB051001EB400080680190D9
:109DB00005EB450000EB051001EB4000D0F81E005C
:109DC000039005EB450000EB051001EB4000D0F8D7
:109DD0002200029005EB450000EB051001EB40006E
:109DE000D0F81A409CB105EB450000EB051001EBE3
:109DF0004000D0F81A00B0F8008005EB450000EBF9
:109E0000051001EB4000D0F81600B0F8009005EB0B
:109E1000450000EB0510D44901EB4000B0F814A058
:109E200005EB450000EB051001EB400000690490D4
:109E30002020CE49087005EB450000EB0510CA4A0A
:109E400002EB40000168C948401CFEF762FAC748AF
:109E5000FEF73DFA06462E223046761CC3490A54C8
:109E6000C04890F8E60300F0010060B1432230469C
:109E7000761C0A5453223046761C0A545622304629
:109E8000761C0A540CE052223046761CB7490A541C
:109E900045223046761C0A5443223046761C0A542A
:109EA0000020B2498855B248007810B1012832D15B
:109EB0001EE0AE48401C38F08BFA28B15020A9496A
:109EC00081F8FA0F00205FE73E20A8490870012DB5
:109ED00006D1A44890F8810810B1A248B0F87C9847
:109EE000A449D1F83009002211460AF0A3FB12E080
:109EF00001219E48401C38F0A7FA08B1002043E732
:109F00003C209A4908709B49D1F834090022114637
:109F10000AF090FB00BF00BF964A05F5147102EBF2
:109F20008101086801211FF04DFD012204212D202F
:109F300009F064FA8F4A05F5147102EB8101086893
:109F4000012205210AF076FB06F02EFC012706F01F
:109F50000DFC0422114685480AF06CFB814890F8FC
:109F6000E60300F0010070B38148007810B10128C9
:109F70003DD12AE005EB450000EB05107A4901EBE5
:109F80004000406800B305EB450101EB0511764A3E
:109F900002EB41014868FEF79AF905EB450101EB38
:109FA0000511714A02EB410100904868009938F0B0
:109FB000B5FA401C40B938F0FBF94F20694981F8E7
:109FC000FA0F0020E0E613E011E05146049838F063
:109FD0006FFA061E0ADC1EB938F0EAF90120D3E652
:109FE0004E20604981F8FA0F0020CDE600BF00BF87
:109FF000F4BB5F48007810B1012835D11EE0594804
:10A0000090F8E60300F0010040B1D847401CA0B929
:10A0100038F0CEF984F800800020B5E65146049867
:10A0200038F07CFA0646504507D038F0C1F94F2089
:10A030004C4981F8FA0F0020A6E615E0494890F84F
:10A04000E60300F0010018B10198804706460AE0D7
:10A050005146049838F02CFA0646401C18B94E2098
:10A06000404981F8FA0F00BF00BF38F0A1F900E0C5
:10A0700001E0012088E6022D05D0042D03D0122D29
:10A0800001D00B2D78D109F0FF093948007810B1C3
:10A0900001285FD132E0002020702BE0B8B2052308
:10A0A00004220A210AF03EFE7F1C039880472D48B7
:10A0B00090F8E60300F0010040B1D847401CB0B969
:10A0C00038F076F984F8008000205DE65146049867
:10A0D00038F024FA0646504509D038F069F94F2087
:10A0E000204981F8FA0F84F8008000204CE620789F
:10A0F000401C207020784845D0DB2BE000202070E9
:10A1000023E0B8B2052304220A210AF00BFE7F1CCB
:10A11000144890F8E60300F0010018B10198804758
:10A1200006460AE05146049838F0C2F90646401C3B
:10A1300018B94E200B4981F8FA0F002E00DC07E019
:10A14000029880472078401C207020784845D8DB52
:10A1500000BF00BF00BF38F02BF984F80080012059
:10A1600012E609E0C8C60020E4CA08082F02012050
:10A170005D040020B6E508084548007810B10128C4
:10A180007FD132E0002020802BE0B8B205230422EA
:10A190000A210AF0C7FD7F1C039880473D4890F8CC
:10A1A000E60300F0010040B1D847401CB0B938F0D8
:10A1B000FFF8A4F800800020E6E55146049838F046
:10A1C000ADF90646504509D038F0F2F84F20314934
:10A1D00081F8FA0FA4F800800020D5E52088401C03
:10A1E000208020884845D0DB4BE00020208043E0E1
:10A1F000B8B2052304220A210AF094FD7F1C2548E9
:10A2000090F8E60300F0010018B101988047064677
:10A210000AE05146049838F04BF90646401C18B93C
:10A220004E201C4981F8FA0F002E00DC27E0012D9A
:10A230001DD1184890F88108C8B1002604E01648DE
:10A24000805D00B105E0761C124890F88108B042AC
:10A25000F5DC00BF0F4890F88108B04206DD208889
:10A26000401C81B20B48A0F87C1800E007E002987F
:10A2700080472088401C208020884845B8DB00BFEC
:10A2800000BF00BF38F094F8A4F8008001207BE5FF
:10A290005D040020C8C6002059D9002010B504462E
:10A2A0001448B0F8D80A00F4007008BB4CB1124949
:10A2B0001248B0F85A0008800846007840F0800044
:10A2C00008700C4890F8D80A00F00100C0F10400B2
:10A2D00002010A4908310A48FDF7A1FF3EF040FC9F
:10A2E0000448B0F8D80A40F400710248A0F8D81A1F
:10A2F00010BD0000C8F600204C05002048010120D8
:10A3000024C2002010B50F4890F8FD0300F00704A8
:10A310001CB10C4890F8FA0F08B1002010BD611E66
:10A32000C8B20CF0CFFC611EC8B205212EF0A3FA12
:10A33000002005490870054908700549088001207A
:10A34000ECE70000C8C60020690400206804002073
:10A350006C04002070B5B34890F8FD0300F00705C9
:10A360001DB1B04890F8FA0F08B1002070BDE7E0C9
:10A37000691EC8B202F0D0FD30B1691EC8B22AF021
:10A3800049FA0446401C08B90020EFE7A6480088B7
:10A39000B8BB0020A5490870A5490870A5490870F8
:10A3A000012C10D0022C12D0062C02D0462C16D133
:10A3B00011E0691EC8B211212EF05DFA02209E49FB
:10A3C00008700020D2E702209B49087009E00020B5
:10A3D0009949087005E001209749087001E00020C4
:10A3E000C4E700BF8F4890F8FD0300F007009249D2
:10A3F000097801F00F0140EA01118A4880F8FD1345
:10A4000030E0FFE78C48007802282BD1042C1FD1C4
:10A410008648007880F00300844908700846007878
:10A4200048B986488078532805D18448008840F28E
:10A43000012188420BD0691EC8B20CF043FC5520A4
:10A44000784981F8FA0F0020774908808EE778E094
:10A450007548B0F90000012804DD744800786040B8
:10A46000724908707248007838B16F48B0F900003E
:10A470006F490978401A012804DC70496A4AB2F928
:10A4800000208C54302C01DB392C01DD2E2C0AD11C
:10A490006848007818B964480078664908706248CE
:10A4A00000786349087060480088401C00B25E492B
:10A4B000088061480078012819D1084600880A28D8
:10A4C00015D15C48007818B90846007859490870D9
:10A4D00055480078564908702E215348B0F900209D
:10A4E0000088401C00B2504B1880544881544E489C
:10A4F000B0F900001E2801DA0A2C03D100204A49D5
:10A50000088033E70D2C1BD14B48007818B94B4815
:10A510000078022807D048480078012804D147482D
:10A520000078462800D10CE0691EC8B20CF0CAFBC6
:10A5300055203C4981F8FA0F00203B49088015E777
:10A5400016E700BF002005F08BFF691EC8B20CF0B3
:10A55000B9FB00203A4908703349088000260025DD
:10A560003448007832490978884259DA3148047809
:10A5700032E04EB93148005B43F23001884201D0ED
:10A58000012000E00020064626B300212D48A0F857
:10A590004B1F2A48055D2E2D06D12348008818B987
:10A5A00001202149088008E01F48008828B11E4882
:10A5B0000088401C00B21C4908801B48B0F900000C
:10A5C000042807DC1F48A0F8495F0146B1F8490F8D
:10A5D00015F07CFD601C04B2154800788442C8DD8B
:10A5E000002011490880012000F0DCF91548B0F87E
:10A5F0004000432804D01348B0F8400045280FD14C
:10A6000000211048A0F84B1F40F2D471A0F8491F58
:10A610000120044981F8FB0F22F0E8FD0120A5E6A6
:10A620000020A3E6C8C600206C0400206A040020B5
:10A6300069040020680400206E040020F8C0002097
:10A64000BC060020C8D6002070B58C4890F8FF03E7
:10A6500000F00705894890F8FA0F90B98848B0F8DB
:10A66000400042280DD08648B0F84000462808D067
:10A670008348B0F8400047280CD1824800781F2852
:10A6800008D035F0C1FD022802D1012013F05AFA9A
:10A69000002070BD002685E035F0B6FD022807D108
:10A6A00005F0C2FC20B1002013F04CFA04460EE085
:10A6B0005DB1691EC8B202F02FFC30B1691EC8B28C
:10A6C0002AF0A8F80446401C08B90020E1E7E4B2EB
:10A6D0006D4801680068401C6B4A10606B48445428
:10A6E00010460068FE2803DB002011460860D0E712
:10A6F0000A2C11D006DC022C09D0032C31D0092CF5
:10A7000040D12DE00D2C2AD0242C3BD100E000BFFD
:10A7100000205D490860BCE75B480068801E5B491B
:10A72000085C0D280AD158480068801E5649086008
:10A7300000205649544A126888540EE05248006876
:10A74000401E51490860002150484F4A1268815408
:10A750004D48006808B900209BE7012621E000BFB2
:10A7600000BF49480068401E47490860002047492B
:10A77000454A126888544448006808B9002088E7B0
:10A7800001260EE0202C01DB7E2C09DD3E4800680E
:10A79000401E3D49086000203C493B4A12688854ED
:10A7A00000BF00BF002E3FF477AF002005F058FE39
:10A7B0000020374908703248B0F8400047281CD1C3
:10A7C00030480078C8B92E4991F8221001F00401F0
:10A7D00009B1062100E0022108462C4918F0E0FBEF
:10A7E00005F0E2FF05F0C2FF04221146274809F0F8
:10A7F00021FF0020244908604BE7234800782549C1
:10A8000008700020204908602349224A1278891ADA
:10A81000481E20490A781D49FDF701FD012017490E
:10A8200081F8FC0F03F0FEFA1548B0F84000432809
:10A8300018D01348B0F84000452813D00021104824
:10A84000A0F8491F8172B0F84000442804D1134891
:10A850000078134908700FE0084890F8C7031049C2
:10A86000087009E000210648A0F84B1F42F2107161
:10A87000A0F8491F22F0BAFC01200AE7C8C6002050
:10A88000C8D60020B70600207004002016C10020A2
:10A89000BC060020B906002015020120C7060020D2
:10A8A000B006002030B502460B460020591E0EE0CF
:10A8B000C40004EB4004555C04EB2510C40004EB19
:10A8C0004004555C05F00F0560194C1E21B20029AB
:10A8D000EEDA30BD10B5044611210948FDF7B8FC89
:10A8E000074854F8011F016061684160FFF7DBF918
:10A8F00003480168216040686060641E10BD00006C
:10A9000074C60020D0F80220C0F80120C288A0F848
:10A910000520017AC17100220272704710B5044609
:10A9200011210948FDF794FC074854F8011F016004
:10A9300061684160FFF7D1F9034801682160406810
:10A940006060641E10BD000074C60020072105E091
:10A950004A1E431C9B5C421C5354491E0029F7DCD1
:10A9600000224270704700004FF480610B4A118052
:10A97000012803D10A210A4A11800EE0022803D1DE
:10A980002821074A118008E0032803D15021044AF6
:10A99000118002E00A21024A118070471A18024011
:10A9A0007600002000B50346D8B2FFF7DDFF002097
:10A9B00000BD00002DE9FC5F8346894616461C4613
:10A9C000082E00D90826002C3ED02048D0F800A040
:10A9D0004FF00008601E04B229E0A5B205EB0800A4
:10A9E00085B26D1005FB09A018490860314668461C
:10A9F0002AF074FC32466946584606F027FA0746A4
:10AA0000002F03DA2CB2601E04B210E037B10FFA47
:10AA100085F808F101000FFA80F808E00B4800689B
:10AA2000801B0A490860681C80B2BDE8FC9FA045F5
:10AA3000D3DD06480068801B04490860002F03DD51
:10AA400008460068484408600020EEE7D40500206E
:10AA50002DE9F84F82460F4690461C46BAF13C0F4E
:10AA60006FD009DCBAF1340F11D0BAF1350F0DD027
:10AA7000BAF1360F7DD10DE0BAF1440F0CD0BAF126
:10AA8000450F77D0BAF1460FF4D189E0A5E0002058
:10AA9000BDE8F88F0020FBE75148008F00F400600C
:10AAA00000287AD1F8B28DF800009DF80000A0F1DE
:10AAB0000109022608F00100A0B34A4890F8610895
:10AAC00018B930208DF8010033E02CB1202C03DCC4
:10AAD000E0B28DF80200032631208DF80100122229
:10AAE0003146684629F030F9002509E005EB4511AB
:10AAF0003D4A881802221F2129F026F9681CC5B298
:10AB0000082D05DA05EB45103749085C0028EDD122
:10AB100000208DF8000002220121684629F014F976
:10AB20000120B5E7FFE708F0020010B132208DF8F0
:10AB300001003CB1202C05DCE0B28DF802000326B8
:10AB400026E02CE09DF8000010B39DF800001828C6
:10AB50001EDC9DF80100322804D1244850F8290059
:10AB60004088A8B9214850F82900808880B91F4939
:10AB700002E02DE02BE010E051F829100988C1F126
:10AB8000200000EBD071C1F347018DF802100326BD
:10AB900012223146684629F0D7F8012078E71CE0F8
:10ABA0003FB13846FDF793FBC6B2202E02DD2026CA
:10ABB00000E000260A48008F00F4006028B908F081
:10ABC000FF023146384629F0BFF8012060E704E073
:10ABD000514607A032F088FB00BF00BF002057E7B6
:10ABE000C8D60020C8E6002029EF0020FC02002083
:10ABF000436F6D6D616E642025640A003EB50446A6
:10AC000020461D2C7ED00CDCA0F10F000D287AD23E
:10AC1000DFE800F02C79792B2A7979792E32403CC3
:10AC2000380050283AD006DC332829D03D2809D0F6
:10AC30003F2868D10DE051287BD0522878D0532886
:10AC4000F7D1EAE013F02EF800909148008880B226
:10AC50003EBD9048008F00F4006020B900221146EC
:10AC6000104629F071F810E10FE10EE10020EFE746
:10AC700000200CF03DF808E101200CF039F804E167
:10AC80000020E5E70320FFF76FFEFEE00220FFF75C
:10AC90006BFEFAE00120FFF767FEF6E002A9002054
:10ACA00029F024FB9DF80A000A2190FBF1F201FB38
:10ACB00012009DF80A100A2291FBF2F100EB01103C
:10ACC000754908709DF809000A2190FBF1F201FB1B
:10ACD00012009DF809100A2291FBF2F100EB01101D
:10ACE0006D4948709DF80B000A2190FBF1F201FBC1
:10ACF00012009DF80B100A2291FBF2F100EB0110FB
:10AD0000654902E0B9E0BBE013E088709DF80800F7
:10AD10000A2190FBF1F201FB12009DF808100A22B3
:10AD200091FBF2F100EB01105B49C87001208FE745
:10AD300035E001A9002029F041FB9DF804000A211B
:10AD400090FBF1F201FB12009DF804100A2291FB26
:10AD5000F2F100EB0110514908709DF805000A213D
:10AD600090FBF1F201FB12009DF805100A2291FB05
:10AD7000F2F100EB0110494948709DF806000A21E4
:10AD800090FBF1F201FB12009DF806100A2291FBE4
:10AD9000F2F100EB011041498870002058E73E486D
:10ADA000807800F00F003C498978091101EB81019E
:10ADB00000EB4100C0B28DF80B003748407800F03E
:10ADC0000F0035494978091101EB810100EB410081
:10ADD000C0B28DF809003048007800F00F002E490D
:10ADE0000978091101EB810100EB4100C0B28DF837
:10ADF0000A002948C07800F00F002749C9780911D6
:10AE000001EB810100EB4100C0B28DF8080002A9FE
:10AE1000002029F09DFB00201AE72048007800F070
:10AE20000F001E490978091101EB810100EB410077
:10AE3000C0B28DF804001948407800F00F0017499F
:10AE40004978091101EB810100EB4100C0B28DF896
:10AE500005001248807800F00F0010498978091128
:10AE600001EB810100EB4100C0B28DF8060001A9A1
:10AE7000002029F0C9FB0020EAE603F0BBF9E7E671
:10AE8000214607A032F030FA00BF00BF0020DFE605
:10AE90006C020020C8D60020000000200400002022
:10AEA000436F6D6D616E645F312025640A000000A0
:10AEB0002DE9F84F8046894615461E46DDF828A044
:10AEC000314800680090CB46A8F10104B8F1030FA7
:10AED00057DCBAF1000F02D00020AAF80000D5B963
:10AEE00009E02EB1284801680098081AB04202D93A
:10AEF0000020BDE8F88F04EB0420244901EB00108A
:10AF0000C06804EB0421214A02EB011189688842E0
:10AF1000E7D00120EDE7681C68B9002004EB0421AC
:10AF20001A4A02EB0111886004EB042102EB0111C3
:10AF3000C8600120DDE7B9F1000F11D104EB042056
:10AF4000124901EB0010C06804EB04210F4A02EB28
:10AF500001118968884201D00120CAE70020C8E7B2
:10AF600000270AE032465946404631F0EFFC08B966
:10AF700038B2BEE70BF1010B7F1CAF42F2DB284673
:10AF8000B7E70020B5E700009C000020480700203C
:10AF90002DE9F04705460E4617469946B046032D63
:10AFA0000EDC002407E098F80010284631F07EFE01
:10AFB00008F10108641CBC42F5DB0120BDE8F08704
:10AFC0000020FBE770B5002500BF0E48006800F4C4
:10AFD00000544FF47A7041F003F90A48006800F415
:10AFE0000056B44204D16D1C1CB1022D01DD02E0FB
:10AFF0000025322DE9DB00BF0CB9012070BD002017
:10B00000FCE700001008024030B5024600200FE0C7
:10B010000B7801248440234023B13124431D064D85
:10B02000EC5403E03024431D034DEC54431C18B290
:10B030000828EDDB30BD00002F02012000BFFEE735
:10B0400010B586B04B48B0F80100401E81B24A48A6
:10B05000A0F8461029F01CFC48480168039141689B
:10B060000491007A8DF81400444801680091416809
:10B070000191007A8DF808003E48D0F80300CDF821
:10B080000D003C48D0F80710CDF80110C07A8DF8BB
:10B0900005009DF80C0020F00700C01C8DF80C0086
:10B0A000002411E09DF80D0000F00F0048B903A83E
:10B0B000FFF710FC9DF80C00401EC0B28DF80C008C
:10B0C00000E003E0601C04B2032CEBDB00BF9DF842
:10B0D000000020F00700801C8DF8000025488E3805
:10B0E00090F88E0000F04000F8B19DF80C0040F0A0
:10B0F00080008DF80C009DF8000040F080008DF875
:10B1000000001F49D1F89C014FF496736A46002154
:10B1100000F092F817488E3890F88E0040F08001C9
:10B1200014488E3880F88E101BE012488E3890F844
:10B130008E0000F08000A0B19DF80C0040F080006F
:10B140008DF80C009DF8000040F080008DF80000A4
:10B150000B49D1F804024FF496736A46002100F0BF
:10B160006BF841F288336A4603A9064800F064F898
:10B1700006B010BD56E70020C8D600200CF808081D
:10B18000B6E50808C8D800203EB517480168009108
:10B1900041680191007A8DF808001448D0F8011038
:10B1A000CDF8011040798DF8050010488E3890F8E0
:10B1B0008E0000F0800038B19DF8000040F0800063
:10B1C0008DF80000032400E00224C4EBC40101EB6D
:10B1D00004120749114401F10A004FF4FA736A4658
:10B1E000002100F029F83EBD0CF8080856E70020C1
:10B1F00032DE0808704700000EB50C480168009167
:10B2000041680191007A8DF8080009484168CDF83D
:10B2100001100089ADF805000649D1F8C0010023EE
:10B220006A46194600F008F80EBD00000CF8080840
:10B2300056E70020B6E508082DE9F04707460C461A
:10B2400015469A4657B13846FDF741F88146002326
:10B250004A46052138460DF0D7FD05E000230122BE
:10B2600005211CA00DF0D0FD34B1012309220621D7
:10B2700020460DF0C9FD05E001231A4605211648B8
:10B280000DF0C2FD3DB102230922072128460DF031
:10B29000BBFD804606E00223012205210E480DF089
:10B2A000B3FD8046032300220C2110460DF0ACFDB7
:10B2B00080464146094837F031F90646401C30B90E
:10B2C0004F20074981F8FA0FFF20BDE8F087F0B260
:10B2D000FBE700002D000000B4E5080816C10020BF
:10B2E000C8C600207047704770477047FEB5802180
:10B2F0004148FCF7ADFF002423222146641C3E4850
:10B3000042540146081903223C4912F062FEA41D72
:10B310002C222146641C384842543848401FC078CB
:10B32000002817DD3548401FC1783548A0F8421085
:10B3300029F026FA304908190D223249FCF7B1FFED
:10B340002D48FCF7C4FF04B22C222046611C0CB22D
:10B3500029490A542948401F417B007B274A521F34
:10B36000D27A264D6D1FCDE900200291AB7A6A7A20
:10B37000297A214D2819FEF725FC2846FCF7A7FF5E
:10B3800004B22C222046611C0CB229460A54202209
:10B390002046611C0CB229460A541B4991F8EF3330
:10B3A00091F8F0232946081918A138F091FC284695
:10B3B000FCF78DFF04B20D222046611C0CB2294619
:10B3C0000A540A222046611C0CB229460A5421461E
:10B3D000284637F0A3F8401C48B10F48FCF777FF28
:10B3E000054629460C4837F099F8401C18B94F20FB
:10B3F000054981F8FA0FFEBD6F0201205BE70020CE
:10B40000C8D6002088D80020C8C600204543522353
:10B410003A25752F25750000CACA0808704770477D
:10B420000EB50D480168009141680191007A8DF8D0
:10B4300008000A48D0F80310CDF80110C0798DF843
:10B4400005000749D1F88C024FF42F736A4600219A
:10B45000FFF7F2FE0EBD00000CF8080856E70020CA
:10B46000B6E5080838B51749D1F80C0200230A22BE
:10B4700005210DF0C9FC01230222052112480DF01F
:10B48000C3FC1248B0F80100009002231A46194686
:10B4900068460DF0B9FC0546032300220C21104636
:10B4A0000DF0B2FC05462946094837F037F8044646
:10B4B000401C20B94F20074981F8FA0F38BD00BF62
:10B4C000FCE70000B6E50808B4E5080856E70020E8
:10B4D00016C10020C8C6002030B589B023480168D5
:10B4E000019141680291007A8DF80C002048D0F853
:10B4F0000510CDF80510407A8DF809001C48B0F809
:10B5000001301C48D0F8AC221BA104A838F0E0FBA5
:10B51000044600232246052104A80DF075FC1448BA
:10B52000B0F80300009002231A46194668460DF051
:10B530006BFC03230922072101A80DF065FC0546D9
:10B54000032300220C2110460DF05EFC054629461F
:10B550000B4836F0E3FF0446401C28B94F20094948
:10B5600081F8FA0F09B030BD00BFFBE70CF80808FE
:10B5700056E70020B6E50808257328257529000040
:10B5800016C10020C8C6002070B586B036480168D4
:10B59000039141680491007A8DF8140032480168E3
:10B5A000009141680191007A8DF808002F48B0F8A9
:10B5B0000100ADF80D002D48D0F80310CDF80110B2
:10B5C000C0798DF8050029488E3890F88E0000F07B
:10B5D000800068B19DF80C0040F080008DF80C00F0
:10B5E0009DF8000040F080008DF80000012400E08C
:10B5F0000024C4EBC40101EB04121D49114401F104
:10B600000A00FCF764FE0646C4EBC40101EB041219
:10B610001749114401F10A000023324605210DF0BB
:10B62000F3FB01230922872103A80DF0EDFB022380
:10B630000922072168460DF0E7FB032300220C21B5
:10B6400010460DF0E1FB054629460A4836F066FF34
:10B650000446401C28B94F20074981F8FA0F06B06C
:10B6600070BD00BFFBE700000CF8080856E700209B
:10B6700032DE080816C10020C8C6002030B587B0E9
:10B68000584890F8810898B15749012010F092FF6E
:10B690005649A1F85C000846B0F85C0080B1084645
:10B6A000B0F85C00401E81B25048A0F85C1007E082
:10B6B00007214D48FFF7F6F881B24C48A0F85C101E
:10B6C00029F064FC4A480168049141680591007AB8
:10B6D0008DF8180046480168019141680291007A8E
:10B6E0008DF80C004048401ED0F80A00CDF811003B
:10B6F0003D48401ED0F80E10CDF80510807C8DF826
:10B7000009009DF8100020F00700C01C8DF8100003
:10B71000002411E09DF8110000F00F0048B904A8C2
:10B72000FFF7D8F89DF81000401EC0B28DF8100049
:10B7300000E003E0601C04B2032CEBDB00BF9DF8CB
:10B74000040020F00700801C8DF8040026488F3884
:10B7500090F88E0000F04000F8B19DF8100040F025
:10B7600080008DF810009DF8040040F080008DF8F6
:10B7700004002049D1F89C014FF4967301AA0021DE
:10B78000FFF75AFD18488F3890F88E0040F080017E
:10B7900015488F3880F88E101BE013488F3890F8CA
:10B7A0008E0000F08000A0B19DF8100040F08000F5
:10B7B0008DF810009DF8040040F080008DF8040022
:10B7C0000C49D1F804024FF4967301AA0021FFF747
:10B7D00033FD42F2107301AA04A90748FFF72CFDBC
:10B7E00007B030BDC8C6002057E70020C8D60020EB
:10B7F0000CF80808B6E5080860D900203EB51648E0
:10B800004078401EC1B2154880F8211029F03EFD55
:10B8100000211348017413480168009141680191A7
:10B82000007A8DF808000C48D0F80310CDF801100C
:10B83000C0798DF805009DF8000020F00700801CFD
:10B840008DF800004FF448736A4600210448001D3B
:10B85000FFF7F2FC3EBD000056E70020C8D60020EE
:10B86000A1D900200CF808087047000070B5054603
:10B8700035B100203449087034490880012070BD7A
:10B880000221334880F8221000F5805090F88E0095
:10B8900000F01F04A01E1A283ED2DFE800F01A1B99
:10B8A000193D3D253D1C1D1E1F10203D3D3D3D3DCC
:10B8B0000D222123243D3D26FFF79CFC2CE0012096
:10B8C00021490870002021490880FFF70FFD23E07F
:10B8D00000BF00BF00BF00BF00BF00BF00BF00BF70
:10B8E00000BF00BF00BF00BF00BF1748007880B195
:10B8F000042C03D115480088152801D1042C08D048
:10B90000611E01EB4101134A02EB4101D1F8020033
:10B9100080470E48048000BF00BF0C4800880728FD
:10B9200004D100200849087008490880002108480F
:10B93000A0F85810A0F5805090F8FA0F08B901202F
:10B940009DE700209BE700006404002066040020BF
:10B95000C8D6002028CE0808704770473EB5174863
:10B960000168009141680191007A8DF8080014483F
:10B97000D0F80110CDF8011040798DF8050010487D
:10B980008E3890F88E0000F0800038B19DF80000ED
:10B9900040F080008DF80000072400E00624C4EB8E
:10B9A000C40101EB04120749114401F10A004FF4EC
:10B9B000FA736A460021FFF73FFC3EBD0CF8080809
:10B9C00056E7002032DE080870B586B036480168B8
:10B9D000039141680491007A8DF81400324801689F
:10B9E000009141680191007A8DF808002F48B0F865
:10B9F0000100ADF80D002D48D0F80310CDF801106E
:10BA0000C0798DF8050029488E3890F88E0000F036
:10BA1000800068B19DF80C0040F080008DF80C00AB
:10BA20009DF8000040F080008DF80000052400E043
:10BA30000424C4EBC40101EB04121D49114401F1BB
:10BA40000A00FCF744FC0646C4EBC40101EB0412F7
:10BA50001749114401F10A000023324605210DF077
:10BA6000D3F901230922872103A80DF0CDF9022380
:10BA70000922072168460DF0C7F9032300220C2193
:10BA800010460DF0C1F9054629460A4836F046FD34
:10BA90000446401C28B94F20074981F8FA0F06B028
:10BAA00070BD00BFFBE700000CF8080856E7002057
:10BAB00032DE080816C10020C8C600200EB50C48AA
:10BAC0000168009141680191007A8DF808000948E9
:10BAD0004168CDF80110007A8DF805000649D1F8CB
:10BAE000840140F2D5736A460021FFF7A5FB0EBD25
:10BAF0000CF8080856E70020B6E50808F0B589B04C
:10BB00004A484078401EC1B2494880F8281029F0C0
:10BB100093FC48480168069141680791007A8DF8C6
:10BB2000200044480168039141680491007A8DF82F
:10BB3000140040480168009141680191007A8DF835
:10BB400008003A48D0F80A10CDF81910807B8DF81B
:10BB50001D003648D0F80210CDF80D1080798DF810
:10BB600011003248B0F80710ADF80110407A8DF896
:10BB700003009DF80C0020F00700801C8DF80C00DD
:10BB80009DF8180020F00700801C8DF818009DF823
:10BB9000000020F00700801C8DF800002648007C83
:10BBA00000F01000A8B124492448FCF7B2FB234858
:10BBB000FCF78DFB214946182148D0F86C1230461D
:10BBC000FCF7A7FB40F6543303AA00211B48FFF7FC
:10BBD00033FB1948FCF77BFB064600233246052160
:10BBE00015480DF011F901230922872168460DF04F
:10BBF0000BF902230922072106A80DF005F905B269
:10BC0000032300220C2110460DF0FEF805B2294650
:10BC10000C4836F083FC04B2601C28B94F200A4956
:10BC200081F8FA0F09B0F0BD00BFFBE756E700202E
:10BC3000C8D600200CF80808C7D900202F02012020
:10BC4000B6E5080816C10020C8C600203EB5204849
:10BC500090F82C4000242CE004EB44011D4810F81F
:10BC60001100401EC1B21A4880F82C1029F002FCC5
:10BC700000211948417419480168009141680191F7
:10BC8000007A8DF8080004EB4401124800EB4100F3
:10BC9000D0F80110CDF8011040798DF805004FF46F
:10BCA00061736A4600210C48401DFFF7C5FA601C0D
:10BCB00004B20848801E4078A042CDDC00231A461A
:10BCC00019461846FFF7B8FA014880F82C403EBDE7
:10BCD000C8D6002058E70020D8D900200CF8080862
:10BCE0000EB510480168009141680191007A8DF805
:10BCF00008000D48D0F80110CDF8011040798DF8FA
:10BD000005009DF8000040F080008DF80000074914
:10BD1000D1F844074FF496736A460021FFF78CFA76
:10BD20000EBD00000CF8080856E70020B6E508082C
:10BD300070B5ADF5006D04460025224609496846F8
:10BD4000FCF76DFA002604E01DF806002844C5B291
:10BD5000761CA642F8D3C5F58070C5B228460DF50D
:10BD6000006D70BD74C200202DE9F04190B0054611
:10BD7000FE4801680A9141680B91007A8DF8300005
:10BD8000FA485138C16E0791016F089190F874001C
:10BD90008DF82400F5485A300168049141680591F6
:10BDA000007A8DF81800F248B0F85C70B0F8468060
:10BDB000002695BBEF4801680D9141680E91007A0D
:10BDC0008DF83C00EB480168019141680291007ACE
:10BDD0008DF80C00E5483630016801914168029108
:10BDE000007A8DF80C00E44901A816F0CDFBE34879
:10BDF000407800F0080028B99DF8040080F0800029
:10BE00008DF80400DA48407D002805D09DF8040034
:10BE100080F080008DF80400D0E0FFE7022DFBD118
:10BE2000D44801680D9141680E91007A8DF83C006C
:10BE3000D0480168019141680291007A8DF80C00A8
:10BE4000CA4836300168019141680291007A8DF844
:10BE50000C0000248FE0C4EB0411C94800EB410042
:10BE6000008841F2883188426EDDC4EB0411C44879
:10BE700000EB4100008842F21071884214DDC4EBEF
:10BE80000411BF4800EB41000088A0F51C50113898
:10BE900081B2B748A0F85C1029F078F8B448B0F83F
:10BEA0006A10A0F846100CE0C4EB0411B44800EB93
:10BEB00041000088A0F59850893881B2AC48A0F8BC
:10BEC000461028F0E5FCAD48407800F0400020B96D
:10BED000AA48407800F08000C0B1A848407800F03F
:10BEE000400030B1A5482F3890F8220000F0400003
:10BEF00060B9A248407800F0800030B19F482F38E8
:10BF000090F8220000F0800000B932E0C4EB041188
:10BF10009B4800EB410050F8151F0D9141680E91B0
:10BF2000007A8DF83C0006F0020038B19DF834002C
:10BF300080F080008DF8340026F002060DA98B48B1
:10BF40000930FCF7A1FE13E0C4EB04118C4800EBB0
:10BF50004100008840F22F11884208D0C4EB041140
:10BF6000874800EB41000088B0F5977F00D100E0E2
:10BF700000BF601CC4B27E48D0F87603A0423FF7F1
:10BF80006AAF804901A816F0FFFA7849093101A883
:10BF900009F0E8FF7948407800F0080028B99DF8DA
:10BFA000040080F080008DF804007148407D28B1C5
:10BFB0009DF8040080F080008DF804000024C5E1A5
:10BFC000C4EB04116E4800EB4100008841F2883157
:10BFD00088427DDD26F00106C4EB0411684800EBC1
:10BFE0004100008842F21071884216DD46F00106D9
:10BFF000C4EB0411624800EB41000088A0F51C501E
:10C00000113881B25A48A0F85C1028F0BFFF584898
:10C01000B0F86A10A0F846100CE0C4EB04115848C0
:10C0200000EB41000088A0F59850893881B2504853
:10C03000A0F8461028F02CFC042D31D14B480A9969
:10C0400001600B9941609DF8301001724B484078B7
:10C0500000F0400038B94948407800F0800010B93D
:10C0600000F0A4FB44E14548407800F0400030B1C6
:10C0700042482F3890F8220000F0400068B93F484D
:10C08000407800F080000028ECD03C482F3890F831
:10C09000220000F080000028E4D000F087FB27E1B8
:10C0A0003648407800F0400020B93448407800F02D
:10C0B0008000D0B13148407800F0400030B12F48C6
:10C0C0002F3890F8220000F0400070B92B4800E0B3
:10C0D000B1E0407800F0800030B128482F3890F867
:10C0E000220000F0800000B92EE1012D5FD1C4EBE9
:10C0F0000411234800EB410100F68630CA68C2668D
:10C100000A690267097D80F8741006F0020038B1F0
:10C110009DF8340080F080008DF8340026F002068F
:10C12000C4EB0412164800EB4200C11C0F481B3040
:10C1300016F02AFAC4EB0412114800EB420000F199
:10C1400015010A481B302EF08DF80848A0F1510166
:10C15000CA6E02600A6F426091F874100172C4EBFB
:10C160000411074800EB41010EE0000019E6002031
:10C17000C8D600200CF8080842F80808F0D80020BB
:10C1800042DA002054F8080800F6314051F8032F35
:10C1900002604A684260097A0172A0F6AB7090F8BA
:10C1A000AB0F80F08001834880F8AB1FA0E0C4EBA8
:10C1B0000411814800EB410050F8151F0D914168B2
:10C1C0000E91007A8DF83C0006F0020038B19DF81F
:10C1D000340080F080008DF8340026F0020601A9BA
:10C1E0000DA816F0D1F975490DA809F0BBFE002184
:10C1F0000DA82AF0FBFA0DA90120FDF7EFFB70480E
:10C200000D99C1660E9901679DF83C1080F8741075
:10C2100051300D9901600E9941609DF83C100172FA
:10C22000C4EB0412644901EB420101F115000DA9B0
:10C23000FCF72AFD5CE0C4EB04115F4800EB410011
:10C240000088B0F5FA7F21DDC4EB04115A4800EBF9
:10C2500041000088B0F5FC7F18DC012D16D1C4EB3D
:10C260000411554800EB41015548CA68C2660A6985
:10C270000267097D80F8741051305149CA6E02601E
:10C280000A6F426091F87410017231E0C4EB04113E
:10C29000494800EB41000088B0F5FC7F0BDDC4EBA2
:10C2A0000411454800EB41000088B0F5FE7F02DC38
:10C2B000012D00D148E0C4EB04113F4800EB4100E0
:10C2C0000088B0F5977F02D1042D00D03CE03C48B7
:10C2D0003C490A68C2664A680267097A80F87410A5
:10C2E000513038490A6802604A684260097A01722E
:10C2F00015B93048407D40B13148AB3031490A680A
:10C3000002604A684260097A0172042D1BD02E48EF
:10C3100090F820102D48B0F8CC07814206DA2A4860
:10C3200090F820102348A0F8481003E0002121488D
:10C33000A0F84810FCF7A8FE06F0010008B1FCF7D1
:10C34000D1FFFCF7F7FD00BF601CC4B21948D0F85C
:10C350007603A0423FF734AE1648407D38B1194805
:10C360000168019141680291007A8DF80C0014482F
:10C3700051300A9901600B9941609DF830100172AB
:10C3800051380799C166089901679DF8241080F813
:10C390007410AB3004990160059941609DF8181044
:10C3A00001720448A0F85C70A0F8468010B0BDE8A7
:10C3B000F0810000C8D6002042DA002054F80808B6
:10C3C000C8E500200CF80808C1D80020C8C6002025
:10C3D0002DE9F04186B00446002700251CB9EB4941
:10C3E0000020FDF7FBFAE9481230A0F16A018A6DDE
:10C3F0000260CA6D426091F860100172E44890F8E2
:10C40000EC0800287ED0E348407900287AD100BFAC
:10C410000021E04880F828108FE129F00DF8DE486F
:10C42000007C00F00800E8B1022D19D1D748873808
:10C4300003990160049941609DF814100172D54878
:10C4400090F8280000EBC000D0491B310144CF48D0
:10C45000873802680A6042684A60007A087214E00D
:10C46000012562E1022D00D15FE1CA4890F8280061
:10C4700000EBC000C5491B310144C44887380A6835
:10C4800002604A684260097A0172C0487538C3493F
:10C490000A6802604A684260097A0172123802F042
:10C4A00001FE00287ED0B9482D38BC490A680260D8
:10C4B0004A684260097A0172B749B1F80D20A0F8C4
:10C4C0000120C97BC170B448007C00F0010030BB82
:10C4D000AE487538A0F112010A6802604A684260ED
:10C4E000097A01720421AB4880F8AB1F00F6AB71EA
:10C4F00000F6637016F048F80021A44875382AF059
:10C5000075F900E037E1A14975390120FDF766FAB8
:10C510009E49753901F18700FCF7B6FB50E0032C0A
:10C5200001D0022C4CD199487538A0F112010A684B
:10C5300002604A684260097A01724830407899285E
:10C5400014D192482D38807899280FD18F482D38F2
:10C55000C07899280AD18D48D83890490A68C266AF
:10C560004A680267097A80F8741029E08748D83849
:10C5700000F151010A68C2664A680267097A80F8C8
:10C5800074108749AB30FCF77FFB0421814880F8A9
:10C59000AB1F00F6AB7100F66C7009F0E3FC7B4852
:10C5A0006C3800E011E02AF0B9F978496C39A1F152
:10C5B00009002DF057FE7549753903A82DF052FE7C
:10C5C0000CB1042C01D1FDF739F8022C7CD1724852
:10C5D000007C00F00200002874D06C48753802F02E
:10C5E00061FD28B96C48007C00F004000028F3D0FD
:10C5F0007FB9022D06D16B49D1F8840103A919F046
:10C6000087F905E06749D1F88401604919F080F99C
:10C6100001271B2004F03CFB5F48007C00F0100069
:10C6200018B35D496048FBF774FE5F48FBF74FFEA7
:10C63000064620223046761C5B490A54594AD2F8F5
:10C640006C12594A9019FBF764FE5348007C00F0C5
:10C65000010028B94D498739534819F059F904E0C8
:10C660004A496C39504819F053F9202240214E486C
:10C67000FBF7E7FD49480168009141680191007AA4
:10C680008DF808004448B0F80D00ADF801004248AC
:10C69000FBF71DFE804642463F494348FBF7BFFD7E
:10C6A00002208DF8000069463F4810300CF029FB4D
:10C6B00025203D49487400208874344975393A482A
:10C6C00019F026F930E0FFE7032C2DD13248007C29
:10C6D00000F00100F8B13048007C00F00200D0B159
:10C6E0002A48873802F0DEFC20B92B48007C00F095
:10C6F000040080B125497539274819F009F9264801
:10C70000007C00F0100030B12649D1F86C021F49BE
:10C710006C3919F0FDF81D48753820490A68026027
:10C720004A684260097A017200BF1A4890F82800EE
:10C73000401CC1B2174880F82810164890F82810FD
:10C74000134890F8EC088142FFF667AE012D10D136
:10C750000E4912310020FDF741F90C4812300168F2
:10C76000039141680491007A8DF814000225002796
:10C770004EE600BF00BF0748007A20B903491231D6
:10C780000020FDF72BF906B0BDE8F081A0E60020FF
:10C79000C8C60020C8D60020C7D900200CF8080859
:10C7A00039F80808B6E508082F02012010B58AB04C
:10C7B0005D48407800F00400002852D15B480168D1
:10C7C000019141680291007A8DF80C00584901A846
:10C7D00015F0DAFE002441E053482F3890F823008A
:10C7E0000121A1400840B8B304EBC4004F496C31AB
:10C7F00008440168079141680891007A8DF8240087
:10C8000001A907A815F0C0FE4A4907A809F0AAFB2C
:10C81000002107A829F0EAFF07A90120FDF7DEF8AB
:10C820004148407800F0080028B99DF81C0080F0CD
:10C8300080008DF81C004048407D28B19DF81C0008
:10C8400080F080008DF81C0004EBC401374A6C3284
:10C85000881807A9FCF718FA601CC4B2082CBBDBC7
:10C860005FE032482D380168079141680891007AED
:10C870008DF8240007A802F015FC002851D00024F0
:10C880004DE029482F3890F823000121A1400840AD
:10C89000002842D004EBC401244A6C32881802F00C
:10C8A00001FCD0B304EBC401204A6C32881802F0BA
:10C8B000F9FB90B304EBC4001C496C3108440168D7
:10C8C000049141680591007A8DF81800194904A86F
:10C8D00015F05AFE07A904A809F044FB134936399C
:10C8E00004A815F051FE134904A809F03BFB0021F0
:10C8F00004A829F07BFF9DF8100000F0FC008DF8E3
:10C90000100004A90120FDF769F804EBC401074AEF
:10C910006C32881804A9FCF7B7F9601CC4B2082C63
:10C92000AFDB0AB010BD0000F0D800204FE60020B9
:10C9300042F8080854F80808C8D600200246914278
:10C9400001DD00207047531A03EBD370C0F347009A
:10C95000F8E700002DE9FC5F684F6948007858B996
:10C960004FF0050800206649A1F805001820C8719D
:10C970000846B0F808A004E06148B0F805A04FF000
:10C980000A084FF0000901E008F1010817F8080053
:10C990000028F9D108F1010859484078C0000C215D
:10C9A00090FBF1F0574908805548C07888800C20EA
:10C9B000C880182008814881002400200190504838
:10C9C000B0F80500002861D0002048804C48B0F83D
:10C9D000055000264DE0A146785DA8B9494A518925
:10C9E000494A10192022FBF72CFC46484089044490
:10C9F00000222046641C44490A546D1C414840886A
:10CA0000401C4049488034E0785D012801D1AD1CCC
:10CA10002FE000260AE03B484089B04205DD7A5D00
:10CA20002046641C38490A54761C6D1C3448008921
:10CA3000A84202DD785D0028EDD16D1CF0B20090B7
:10CA400005E020222046641C2F490A54761C2D48FC
:10CA50004089B042F5DC2146641C2B4A00985054B2
:10CA600028484088401C274948800198401CC0B293
:10CA7000019023480089A842ADDC22484088214922
:10CA80004989491C48431F49C86003E000201D49EB
:10CA90004880C86025464FF000091EE009EB0806F3
:10CAA000B85D98B9761C4FF0000B06E000222046D6
:10CAB000641C15490A540BF1010BB85D584502DDA1
:10CAC000B4F5A05FF2D309F1020906E0BA5D204691
:10CAD000641C0D490A5409F10109D14502DAB4F583
:10CAE000A05FDBD30748C068611B08440549C860E4
:10CAF000012006490870BDE8FC9F0000004002408C
:10CB0000004002407C6E00208C6E00205602002007
:10CB100010B5464890F8E10330B1012820D0022832
:10CB20003AD0032871D153E0404890F8F70F30B164
:10CB3000012808D002280AD003280DD108E03C487B
:10CB4000FDF704FF0AE03A48FDF7E8FE06E005E0DD
:10CB50003748FDF7BFFE01E0002010BD00BF56E0E2
:10CB6000324890F8F70F30B1012805D002280BD0D9
:10CB700003280DD104E00DE02D48FDF7ABFE09E0E0
:10CB80002B48FDF7A7FE00BF2948FDF7BBFE01E0DB
:10CB90000020E2E700BF3AE0244890F8F70F30B1F8
:10CBA000012808D002280AD003280DD10BE0204824
:10CBB000FDF7B4FE00BF1E48FDF7C8FE06E01C48A6
:10CBC000FDF7ACFE02E001E00020C6E700BF1EE07A
:10CBD000164890F8F70F30B1012808D0022807D086
:10CBE00003280DD108E01248FDF798FE0AE009E09D
:10CBF0000F48FDF76FFE05E00D48FDF783FE01E0ED
:10CC00000020AAE700BF02E0FFE70020A5E700BF81
:10CC1000084890F8870F00F0F801064880F8871F51
:10CC20000020024981F8F70F012096E7C8C60020CE
:10CC30004FE60020C8D6002010B5124890F8F70F34
:10CC400030B1012808D002280AD003280DD108E00D
:10CC50000D48FDF77BFE0AE00B48FDF75FFE06E09E
:10CC600005E00948FDF736FE01E0002010BD00BFD9
:10CC70000221064880F8871F0020024981F8F70F3B
:10CC80000120F3E7C8C600204FE60020C8D60020E8
:10CC90002DE9F04706460C4615461F46681E00F073
:10CCA0000F010120884000F0FF0801203049087082
:10CCB0003048007848B9207800EA080008B101201F
:10CCC00000E00020401C2B4908702A480078022808
:10CCD00002DD01202749087026480078022808D183
:10CCE00087F0790024494871207840EA08002070D4
:10CCF00007E087F06E0020494871207820EA08009C
:10CD000020701D484079792807D11C48D0F8541567
:10CD10001948C01CFBF7FDFA06E01848D0F8581572
:10CD20001548C01CFBF7F5FA154890F8DA1A0023ED
:10CD30001A460A202CF00CF8104901EB860108680D
:10CD4000FF22002107F076FC05F0800068B10B4956
:10CD500001EB86010868FBF7BAFA814605F00F007F
:10CD60000123FF22494607F0DDFFBDE8F087000000
:10CD7000BA060020B80600202F020120B6E50808F8
:10CD8000C8F6002010B500F007F8024890F8FA0F36
:10CD900010BD0000C8C6002010B513F025F900280A
:10CDA00059D011F061F80446412C42DD482C13DAC9
:10CDB0002A48A0F8404009E011F056F80446412CFA
:10CDC00004DD482C02DA2548A0F840402348B0F89A
:10CDD00040004228F0D03EE0482C0CD1204890F88A
:10CDE000F30F28B300201E4981F8F30F00211B48E0
:10CDF000A0F844102FE01A4890F8F30FA0422AD070
:10CE0000174880F8F34FA4F1480081B21348A0F806
:10CE10004410B0F844101248B0F82D0581421ADDD4
:10CE200000210E48A0F8441000200D4981F8F30FAE
:10CE300011E00B4890F8C103A0420CD10748007CD8
:10CE4000462808D0054890F8230020B91B20044943
:10CE500081F8FA0F10BD00BFFCE70000C8D6002023
:10CE6000C8C600202A4A92F8022402F00F010029C5
:10CE70004CD097282ED008DC15280FD0812813D04D
:10CE8000822817D0852837D11EE09A2828D0CF28AD
:10CE90002CD0E1282CD0F8282ED12BE0012901D16B
:10CEA0005D2000E0402030E0022901D17D2000E03B
:10CEB0007E202AE0012901D17B2004E0062901D14E
:10CEC0005D2000E0602020E0062901D17B2000E009
:10CED00040201AE0062901D1602000E07C2014E007
:10CEE000022901D15D2000E05E200EE024200CE04C
:10CEF0007E200AE05B2008E07F2805DDB02803DA09
:10CF000000F07F02034B985C00BF00BF7047000039
:10CF1000C8C60020EA04090810B50446611CC8B25E
:10CF2000002211462FF012FD10BD0000F0B585B0B3
:10CF3000044614B9474890F8FA4FFF2C0CD1002052
:10CF4000FDF730FD434890F8FA0FFF2803D1002089
:10CF5000404981F8FA0F7BE03F480078A0420DD1AC
:10CF6000002C75D03D480068002871D14FF4FA704C
:10CF70003A4908600120FDF715FD69E0002544B934
:10CF800035480078002861D0002108463BF014FFA6
:10CF90005CE0AA1CD1B2E8B23BF00EFF3049D1F8F8
:10CFA000F402FBF794F9C7B239460E20FFF7C6FC2E
:10CFB000401CC6B2EAB22A49D1F8F40231463BF02D
:10CFC000E3FE002C1CDD642C1ADC04F1D401244A9D
:10CFD00002EB81010868FBF77AF9C7B239460E20E7
:10CFE000FFF7ACFC401CC6B2691CCAB204F1D40104
:10CFF0001B4B03EB8101086831463BF0C5FE1EE088
:10D00000002000900190029003901549D1F8F4029D
:10D01000FBF75DF906461248D0F8F412324668462E
:10D02000FBF7FDF82146684636F05BF800208DF8E6
:10D030000E00681CC2B2072168463BF0A5FE4FF403
:10D04000FA70064908600120FDF7ACFC0248047044
:10D0500005B0F0BDC8C6002048060020A40000208E
:10D06000B6E5080870B5F748857DA0F5805090F8C2
:10D07000C103A84206D14FF4FA61F248A0F8491F53
:10D08000002070BDEF48B0F8400000F47F40B0F5DC
:10D09000706F03D0EC4890F8FA0F08B10120F0E768
:10D0A000EA48007858B10021E64880F8871F082236
:10D0B000E74900F688702DF04FF810F085FD2846FE
:10D0C00017F0F6FE08B10120DBE7E048007848B130
:10D0D000E0480078172805D1DF480078022801D100
:10D0E000062412E0DB48007817280AD1DA480078D5
:10D0F000042806D10624D8480078401ED649087076
:10D1000003E028460EF0EAF90446CF4890F8EA0F0B
:10D1100030B10E2C04D00021CA4881750120B0E73F
:10D12000C848C07B10B9C748407858B1102C09DAFC
:10D13000CA48007B1F2805D00E20C34981F8FA0F8A
:10D1400001209EE7C148007898B9BE48B0F9360082
:10D1500000280BDABB49B1F93600002801DB014693
:10D1600000E041420AB2B749CA8602E00021B54850
:10D17000C186E01E0C286FD2DFE810F0A1050C007C
:10D180005805FA006E005705A00559046E006E00A0
:10D190006E005C04AB48B0F8400000F47060D0B1A1
:10D1A000A848B0F8400000F47060B0F5706F0CD083
:10D1B0000C220421084603F0C5FAA848807A401ED4
:10D1C000A4490978081AA349087047219D48A0F886
:10D1D0004010012055E79B48B0F84000442804D097
:10D1E0009848B0F84000462837D1974890F8DB0FB0
:10D1F000401C954981F8DB0F084690F8DB0F9749F2
:10D200000979884203DD01208F4981F8DB0F8F48BF
:10D21000007870B18B48C08E30B18A48B0F93600C2
:10D220008E490979884209DD0120874981F8FA0F82
:10D2300080E3854890F8DB1F8248C186814890F8DA
:10D240003600814981F8DB0F042008F031FA002014
:10D2500003F006F9012014E7FEE37E480078002879
:10D2600034DD7D480078002830DD7D4800780028D6
:10D270002CDD7C48007818B101207449087004E066
:10D280000120714981F8FA0FD2E776480078401CF6
:10D290007449087001207249087007F007FE08B948
:10D2A0000020EEE6684890F8FA0F70B96E4B1A79D4
:10D2B0006E4B93F8DA1A6C4B987803F043FA6A488D
:10D2C0008178FF226A4807F0B5F9B1E75D48B0F907
:10D2D0003600662818DD5B48B0F936006C2813DA92
:10D2E0005848C08E6B2809D15648B0F840004728EE
:10D2F00004D00120544981F8FA0F04E05149C98E45
:10D3000088B201F08BFF93E74E48C08E40B14D4884
:10D3100090F83600401E4F490870002050490870B0
:10D320004C48007810B14E48007888B94B480079D5
:10D3300048490978884202DD4648007818B901203A
:10D340004449087004E043480078401C4149087093
:10D350000E2048490870042008F0AAF9002040492E
:10D360000870454908803C4908703E4908705FE7ED
:10D370003448806B20F4803132488163B0F840003B
:10D38000442804D02F48B0F84000462835D12F4813
:10D390000078A0B12B48C08E30B12A48B0F93600D1
:10D3A0002E490979884204DD0120274981F8FA0FC6
:10D3B0003EE7244890F83600234981F8DB0F2148E6
:10D3C000B0F84000442808D11F4991F8DB1F01F252
:10D3D000372188B222F008FB07E01B4991F8DB1FD8
:10D3E00001F23D2188B222F067FB0120164981F845
:10D3F000DB0FFF2008F05CF91AE71248B0F8400094
:10D4000047287DD11548007BE0BB1448807A13493A
:10D4100008800846C07A0871002048710D48C1F89C
:10D4200006000120087315481549086003F0ADF99E
:10D43000312008F03DF90E200E49087000200849FF
:10D440000870F5E6C8D60020C8C60020B90600203E
:10D4500013020120B7060020B5060020AC01012010
:10D46000B6060020B806002014C20020C8F600202E
:10D470002F020120BA060020AE060020B156010896
:10D480003C060020FFE7FD48007B1F2815D0FC4824
:10D49000007890B9F948D0F806000178F748807A0A
:10D4A000401E0844F74908700020F7490880F749F2
:10D4B0000870F7490870F7490870F24800780028AA
:10D4C0001ED0F2480078012878D1F2480078002870
:10D4D00074D0EB48007810B901F086FDA8E6002171
:10D4E000ED4880F8871FE74800781F286AD1EB488D
:10D4F00090F8810880B3E848A0F85C10E74800E0A5
:10D50000F0E190F88108E3490978B1EB400F56DC6F
:10D5100000221146E2A007F08DF8E449DD4A1278B6
:10D52000891A481E0122022107F084F8E0490120EF
:10D530000FF040F8D849A1F85C000846B0F85C004C
:10D5400098B90021084602F0F3F830B9D34890F8B2
:10D55000CF03D84908706BE634E0D54900200FF0BE
:10D5600029F8CD49A1F85C001BE0CB48B0F8400099
:10D57000442816D0C948B0F87C0801B2C648C18614
:10D580000021012002F0D4F8C448B0F87C18C24849
:10D59000B0F93600814204DAC04890F8CF03C5499B
:10D5A0000870BD48B0F85C0001B2BB48C1860020DD
:10D5B00002F0BEFF012002F0BBFF03E01CE00021EF
:10D5C000B548C186B448C08E30B1B348C08E401E45
:10D5D00000B2AD49088004E00120B04981F8FA0F9B
:10D5E000BCE30020AA490870AA490870AB4981F839
:10D5F000FA0F0120A24908700025A24800784928A6
:10D6000072D012DC422870D008DC192845D02528B9
:10D610002DD03D286AD041281DD133E0462875D051
:10D62000472872D04828F7D18CE04A38092812D20E
:10D63000DFE800F0CB05A4BF111112C5A8009E4978
:10D64000D1F82C01002135F0CBFD18B10021934811
:10D65000A0F87C18032504E1002014F057FE0D20EB
:10D6600008F060FA002002F0FBFE012009E503202B
:10D6700014F04CFE052008F055FA002002F0F0FEF0
:10D680000120FEE48C49D1F8B008012135F0A8FD55
:10D6900008B102F00BFE0325E3E0012387A219463F
:10D6A0001B2013F07FFC0446012C06D17B4890F828
:10D6B00005080A2804DD6D2402E0022C00D16C2448
:10D6C0006D2C01D06C2C1DD17B4901EB84010868C5
:10D6D000012135F085FDA8B16D2C08D180227B4950
:10D6E0007B48FAF79CFD07E03AE05EE059E08022D3
:10D6F00078497748FAF793FD6748806B20F400710A
:10D70000654881630325ACE000E00DE06A49D1F88B
:10D7100018016F49EA312BF0F3FC18B924205F4956
:10D7200081F8FA0F03259CE06349D1F81C01684990
:10D73000DC312BF0E5FC18B92420584981F8FA0FA8
:10D7400003258EE05C49D1F820016149E3312BF0DB
:10D75000D7FC18B92420514981F8FA0F032580E03D
:10D760005549D1F824015A49F1312BF0C9FC18B9B7
:10D7700024204A4981F8FA0F032572E018F0C4FD0D
:10D7800003256EE01BF01EFF44201CF047FE4620E0
:10D790001CF044FE19F002FC062026F0A9FA03252D
:10D7A0005FE019F0EDF903255BE009F0C5FC032506
:10D7B00057E04FF4805010F0CBFC032551E04FF4BC
:10D7C000005010F0C5FC03254BE000BF012342A22E
:10D7D00000214A2013F0E6FB0446002C3BDD0A2C16
:10D7E00039DC04F1520084B2A4F153000A2831D28A
:10D7F000DFE800F005090E12161A1E22262B022061
:10D8000010F0A6FC26E04FF4804010F0A1FC21E0CF
:10D81000012010F09DFC1DE0082010F099FC19E09B
:10D82000042010F095FC15E0102010F091FC11E0A0
:10D83000202010F08DFC0DE0402010F089FC09E064
:10D840004FF4806010F084FC04E04FF4006010F0AE
:10D850007FFC00BF00BF4FF6FE708442B6D10325A7
:10D8600000BF00BFF5B3032D4AD10448807A401EA3
:10D8700004490978081A0349087034E0AC01012012
:10D88000B6060020B7060020AE060020B506002030
:10D89000B8060020B9060020C8D60020C8C600205F
:10D8A000504C5520434F4445000000001502012014
:10D8B00050E60020B0060020B6E508084B2E424F87
:10D8C00041524420545950450000000076E30808B6
:10D8D000E9CA0020FDD2080853454C45435420496D
:10D8E00054454D0017E00020FA490870FA490880B5
:10D8F000FA490870FA49087002F0B2FD01200EE4FE
:10D900000020F84981F8EA0F084690F8CF03F6495D
:10D910000870012015E4F548F5490860F5480078DD
:10D9200050BBF548007828B1F44890F8380000F072
:10D93000080000B112E2E9480078401CE74908708D
:10D940000020E7490870E548007802281FDD012023
:10D950002AF084FDEA4890F8DA0A032806D101206B
:10D960002AF08AFD0221002010F0B0FAE44890F875
:10D97000DA0AE449C8700AE0D948007810B9DE48EC
:10D98000007820B90120D74981F8FA0FE6E101209B
:10D99000D049087007F08AFA08B900201AE4D14883
:10D9A00090F8FA0FB0BBCD48007800283EDDD24891
:10D9B000007817283AD0C948007801280BDDD14BF0
:10D9C0001A79D978987802F0BDFECE48C27881786D
:10D9D000CD4806F02FFEC7480078D8B1BF48007880
:10D9E000401CBE49087001202AF038FDC44890F858
:10D9F000DA0A032806D101202AF03EFD0221002088
:10DA000010F064FA002002F02BFD07F04FFA10B975
:10DA1000002020E40AE0B948008F00F4807028B9A3
:10DA2000B8488178FF22B84806F004FE96E125F058
:10DA300039FE93E1B148806BB4490840AF4988632F
:10DA40000846B0F840004FF24501884222D14521F6
:10DA5000AA48A0F8401000E069E10020A64908703B
:10DA6000A648703090F84F0100F00800A3497031CB
:10DA700081F84F01002002F0F3FC3BF071F8042024
:10DA800002F056FD9D49C86E0422002106F0D2FD29
:10DA9000452006E49948B0F8400000F4706088B171
:10DAA00043219648A0F84010002002F0D9FC042041
:10DAB00002F03EFD9149C86E0422002106F0BAFD35
:10DAC0004320D3E592488A4908608448007870BBB7
:10DAD0008048007858BB8948B0F84000442804D0FA
